:020000040800F2
:100000000080002041440008AD320008B5320008ED
:10001000BD320008C5320008CD32000800000000E3
:10002000000000000000000000000000D1A0000857
:10003000D53200080000000021A3000889A30008B1
:10004000914400089144000891440008914400083C
:10005000914400089144000891440008914400082C
:10006000914400089144000891440008E5320008DA
:10007000F9320008914400089144000891440008B6
:1000800091440008000000009144000891440008D9
:1000900091440008914400089144000891440008EC
:1000A000914400080D330008914400089144000871
:1000B00091440008914400089144000891440008CC
:1000C00091440008914400089144000891440008BC
:1000D000914400082133000891440008914400082D
:1000E000914400089144000891440008914400089C
:1000F0009144000891440008914400080000000069
:100100000000000091440008000000009144000835
:100110009144000800000000914400089144000848
:10012000914400089144000891440008914400085B
:100130009144000800000000000000009144000805
:1001400091440008914400080000000000000000F5
:10015000000000000000000000000000000000009F
:1001600000000000000000000000000091440008B2
:1001700091440008000000000000000000000000A2
:100180000000000091440008000000000000000092
:10019000000000000000000000000000000000005F
:1001A0000000000000000000914400089144000895
:1001B00091440008914400089144000800000000A8
:1001C0000000000091440008000000000000000052
:0801D00091440008914400086D
:1001E00010B5054C237833B9044B13B10448AFF371
:1001F00000800123237010BDA80000200000000033
:10020000A0BB000808B5034B1BB103490348AFF37B
:10021000008008BD00000000AC000020A0BB00086A
:1002200081F0004102E000BF83F0004330B54FEAA7
:1002300041044FEA430594EA050F08BF90EA020F14
:100240001FBF54EA000C55EA020C7FEA645C7FEAA7
:10025000655C00F0E2804FEA5454D4EB5555B8BFCA
:100260006D420CDD2C4480EA020281EA030382EA3B
:10027000000083EA010180EA020281EA0303362DCD
:1002800088BF30BD11F0004F4FEA01314FF4801CA0
:100290004CEA113102D0404261EB410113F0004FB2
:1002A0004FEA03334CEA133302D0524263EB430369
:1002B00094EA050F00F0A780A4F10104D5F1200E07
:1002C0000DDB02FA0EFC22FA05F2801841F1000162
:1002D00003FA0EF2801843FA05F359410EE0A5F136
:1002E00020050EF1200E012A03FA0EFC28BF4CF067
:1002F000020C43FA05F3C01851EBE37101F000451D
:1003000007D54FF0000EDCF1000C7EEB00006EEB29
:100310000101B1F5801F1BD3B1F5001F0CD34908B3
:100320005FEA30004FEA3C0C04F101044FEA44520A
:1003300012F5800F80F09A80BCF1004F08BF5FEA91
:10034000500C50F1000041EB045141EA050130BD71
:100350005FEA4C0C404141EB0101013C28BFB1F583
:10036000801FE9D291F0000F04BF01460020B1FACE
:1003700081F308BF2033A3F10B03B3F120020CDAA1
:100380000C3208DD02F1140CC2F10C0201FA0CF07F
:1003900021FA02F10CE002F11402D8BFC2F1200CE4
:1003A00001FA02F120FA0CFCDCBF41EA0C0190409A
:1003B000E41AA2BF01EB0451294330BD6FEA0404E3
:1003C0001F3C1CDA0C340EDC04F11404C4F12002CE
:1003D00020FA04F001FA02F340EA030021FA04F3E0
:1003E00045EA030130BDC4F10C04C4F1200220FA37
:1003F00002F001FA04F340EA0300294630BD21FA75
:1004000004F0294630BD94F0000F83F4801306BF3A
:1004100081F480110134013D4EE77FEA645C18BF2E
:100420007FEA655C29D094EA050F08BF90EA020FC5
:1004300005D054EA000C04BF1946104630BD91EABD
:10044000030F1EBF0021002030BD5FEA545C05D1C0
:100450004000494128BF41F0004130BD14F58004FF
:100460003CBF01F5801130BD01F0004545F0FE4173
:1004700041F470014FF0000030BD7FEA645C1ABFA8
:10048000194610467FEA655C1CBF0B46024650EADF
:10049000013406BF52EA033591EA030F41F400210B
:1004A00030BD00BF90F0000F04BF0021704730B591
:1004B0004FF4806404F132044FF000054FF0000166
:1004C00050E700BF90F0000F04BF0021704730B527
:1004D0004FF4806404F1320410F0004548BF4042FC
:1004E0004FF000013EE700BF42004FEAE2014FEA51
:1004F00031014FEA02701FBF12F07F4393F07F4F2C
:1005000081F06051704732F07F4208BF704793F02E
:100510007F4F04BF41F40021704730B54FF4607441
:1005200001F0004521F000411CE700BF50EA010244
:1005300008BF704730B54FF000050AE050EA0102ED
:1005400008BF704730B511F0004502D5404261EB5D
:1005500041014FF4806404F132045FEA915C3FF49E
:10056000D8AE4FF003025FEADC0C18BF03325FEA3B
:10057000DC0C18BF033202EBDC02C2F1200300FAEC
:1005800003FC20FA02F001FA03FE40EA0E0021FA11
:1005900002F11444BDE600BF70B54FF0FF0C4CF4FF
:1005A000E06C1CEA11541DBF1CEA135594EA0C0FB1
:1005B00095EA0C0F00F0DEF82C4481EA030621EAEC
:1005C0004C5123EA4C5350EA013518BF52EA033527
:1005D00041F4801143F4801338D0A0FB02CE4FF0D9
:1005E0000005E1FB02E506F00042E0FB03E54FF009
:1005F0000006E1FB03569CF0000F18BF4EF0010E01
:10060000A4F1FF04B6F5007F64F5407404D25FEAFC
:100610004E0E6D4146EB060642EAC62141EA5551AF
:100620004FEAC52040EA5E504FEACE2EB4F1FD0CF1
:1006300088BFBCF5E06F1ED8BEF1004F08BF5FEA6F
:10064000500E50F1000041EB045170BD06F0004621
:1006500046EA010140EA020081EA0301B4EB5C04CE
:10066000C2BFD4EB0C0541EA045170BD41F48011C6
:100670004FF0000E013C00F3AB8014F1360FDEBFEB
:10068000002001F0004170BDC4F10004203C35DAC7
:100690000C341BDC04F11404C4F1200500FA05F34A
:1006A00020FA04F001FA05F240EA020001F00042EB
:1006B00021F0004110EBD37021FA04F642EB060161
:1006C0005EEA430E08BF20EAD37070BDC4F10C048B
:1006D000C4F1200500FA04F320FA05F001FA04F24F
:1006E00040EA020001F0004110EBD37041F100013B
:1006F0005EEA430E08BF20EAD37070BDC4F1200546
:1007000000FA05F24EEA020E20FA04F301FA05F2AD
:1007100043EA020321FA04F001F0004121FA04F255
:1007200020EA020000EBD3705EEA430E08BF20EA25
:10073000D37070BD94F0000F0FD101F0004640005F
:1007400041EB010111F4801F08BF013CF7D041EAE1
:10075000060195F0000F18BF704703F000465200E5
:1007600043EB030313F4801F08BF013DF7D043EAB6
:100770000603704794EA0C0F0CEA135518BF95EA6C
:100780000C0F0CD050EA410618BF52EA4306D1D1F3
:1007900081EA030101F000414FF0000070BD50EA12
:1007A000410606BF1046194652EA430619D094EA9C
:1007B0000C0F02D150EA013613D195EA0C0F05D186
:1007C00052EA03361CBF104619460AD181EA0301DA
:1007D00001F0004141F0FE4141F470014FF0000092
:1007E00070BD41F0FE4141F4780170BD70B54FF02D
:1007F000FF0C4CF4E06C1CEA11541DBF1CEA1355AD
:1008000094EA0C0F95EA0C0F00F0A7F8A4EB05048E
:1008100081EA030E52EA03354FEA013100F0888085
:100820004FEA03334FF0805545EA131343EA12634E
:100830004FEA022245EA111545EA10654FEA002603
:100840000EF000419D4208BF964244F1FD0404F5BC
:10085000407402D25B084FEA3202B61A65EB030518
:100860005B084FEA32024FF480104FF4002CB6EBD5
:10087000020E75EB030E22BFB61A754640EA0C0055
:100880005B084FEA3202B6EB020E75EB030E22BF95
:10089000B61A754640EA5C005B084FEA3202B6EBD6
:1008A000020E75EB030E22BFB61A754640EA9C0095
:1008B0005B084FEA3202B6EB020E75EB030E22BF65
:1008C000B61A754640EADC0055EA060E18D04FEA23
:1008D000051545EA16754FEA06164FEAC30343EAC3
:1008E00052734FEAC2025FEA1C1CC0D111F4801F90
:1008F0000BD141EA00014FF000004FF0004CB6E789
:1009000011F4801F04BF01430020B4F1FD0C88BF27
:10091000BCF5E06F3FF6AFAEB5EB030C04BFB6EB32
:10092000020C5FEA500C50F1000041EB045170BD25
:100930000EF0004E4EEA113114EB5C04C2BFD4EB52
:100940000C0541EA045170BD41F480114FF0000ED6
:10095000013C90E645EA060E8DE60CEA135594EA52
:100960000C0F08BF95EA0C0F3FF43BAF94EA0C0F55
:100970000AD150EA01347FF434AF95EA0C0F7FF4CA
:1009800025AF104619462CE795EA0C0F06D152EA1E
:1009900003353FF4FDAE1046194622E750EA410602
:1009A00018BF52EA43067FF4C5AE50EA41047FF413
:1009B0000DAF52EA43057FF4EBAE12E74FF0FF3C78
:1009C00006E000BF4FF0010C02E000BF4FF0010C49
:1009D0004DF804CD4FEA410C7FEA6C5C4FEA430CC2
:1009E00018BF7FEA6C5C1BD001B050EA410C0CBF11
:1009F00052EA430C91EA030F02BF90EA020F002073
:100A0000704710F1000F91EA030F58BF994208BFD9
:100A100090422CBFD8176FEAE37040F00100704796
:100A20004FEA410C7FEA6C5C02D150EA013C07D1ED
:100A30004FEA430C7FEA6C5CD6D152EA033CD3D038
:100A40005DF8040B704700BF8446104662468C4632
:100A50001946634600E000BF01B5FFF7B7FF002865
:100A600048BF10F1000F01BD4DF808EDFFF7F4FF8E
:100A70000CBF012000205DF808FB00BF4DF808ED19
:100A8000FFF7EAFF34BF012000205DF808FB00BF3C
:100A90004DF808EDFFF7E0FF94BF012000205DF85E
:100AA00008FB00BF4DF808EDFFF7CEFF94BF012013
:100AB00000205DF808FB00BF4DF808EDFFF7C4FF0C
:100AC00034BF012000205DF808FB00BF4FEA410C55
:100AD0007FEA6C5C02D150EA013C0AD14FEA430C38
:100AE0007FEA6C5C02D152EA033C02D14FF0000075
:100AF00070474FF0010070474FEA4102B2F1E04306
:100B000024BFB3F5001CDCF1FE5C0DD901F0004CF4
:100B10004FEAC0024CEA5070B2F1004F40EB830044
:100B200008BF20F00100704711F0804F21D113F170
:100B30003872BCBF01F00040704741F480114FEAA9
:100B40005252C2F11802C2F1200C10FA0CF320FA32
:100B500002F018BF40F001004FEAC1234FEAD3234F
:100B600003FA0CFC40EA0C0023FA02F34FEA4303B9
:100B7000CCE77FEA625307D150EA01331EBF4FF042
:100B8000FE4040F44000704701F0004040F0FE405D
:100B900040F40000704700BF53B94AB9002908BFAC
:100BA00000281CBF4FF0FF314FF0FF3000F088B934
:100BB000ADF1080C6DE904CE00F006F8DDF804E0B4
:100BC000DDE9022304B070472DE9F047089D0F4688
:100BD00004468C46002B48D18A42164661D9B2FAA7
:100BE00082F34BB1C3F1200201FA03FC20FA02F2B6
:100BF0009E4042EA0C0C9C404FEA164EB7B2BCFB3A
:100C0000FEF1220C0EFB11CC42EA0C4201FB07F074
:100C1000904209D9B21801F1FF3C80F0EE80904279
:100C200040F2EB8002393244121AA4B2B2FBFEF059
:100C30000EFB102244EA024400FB07F7A74209D941
:100C4000341900F1FF3280F0DA80A74240F2D780F9
:100C50003444023840EA0140E41B00211DB1DC406D
:100C60000023C5E90043BDE8F0878B4206D90DB1EA
:100C7000C5E9000100210846BDE8F087B3FA83F119
:100C8000002948D1BB4202D3824200F20781841A74
:100C900067EB030201209446002DE4D0C5E9004C27
:100CA000E1E7002A00F09280B2FA82F3002B40F0D4
:100CB000A8808A1A4FEA164E1FFA86FC0121200CE2
:100CC000B2FBFEF70EFB172240EA02420CFB07F0D4
:100CD000904207D9B21807F1FF3802D2904200F2D1
:100CE000E2804746121AA4B2B2FBFEF00EFB1022BD
:100CF00044EA02440CFB00FCA44507D9341900F176
:100D0000FF3202D2A44500F2CB801046A4EB0C04C3
:100D100040EA0740A2E7C1F120068B4022FA06FC18
:100D20004CEA030C07FA01F420FA06F3F7404FEA05
:100D30001C49234300FA01F81FFA8CFEB7FBF9F0B7
:100D40001C0C09FB107744EA074400FB0EF7A7428E
:100D500002FA01F20AD91CEB040400F1FF3A80F018
:100D60009B80A74240F2988002386444E41B9FB203
:100D7000B4FBF9F309FB134447EA044403FB0EFEFA
:100D8000A64509D91CEB040403F1FF3780F08280EB
:100D9000A6457FD9023B644443EA0040A4EB0E041D
:100DA000A0FB02E7BC427346B94663D360D05DB195
:100DB000B8EB030264EB090404FA06F622FA01F325
:100DC0001E43CC40C5E9006400214CE76208480896
:100DD00042EAC1710B0C43EA00438AB242EA034281
:100DE000B3FBF6F1E407B4463746B6461F23B0FB23
:100DF000F6F0D21B41EA004161E7614614E7104674
:100E000028E7C3F1200120FA01F29E4027FA01F100
:100E10009F403A434FEA164E1FFA86FCB1FBFEF79D
:100E20000EFB1710110C41EA004107FB0CF8884536
:100E300004FA03F43AD9711807F1FF3001D288455A
:100E40001FD8A1EB0801B1FBFEF808FB0CF70EFB65
:100E5000181192B242EA0142BA422FD2B21808F1F6
:100E6000FF31C6D2BA42C4D2A8F102013244C0E76F
:100E7000F0459CD2BEEB020367EB0C070138B94684
:100E800095E7A6EB08084144B81EB1FBFEF808FB45
:100E90000CF7DCE73B467FE7504667E70846FBE692
:100EA0003444023832E7023F32441BE7A1EB080129
:100EB0003846B1FBFEF808FB0CF7C8E7414698E757
:100EC000704700BF80B584B000AF7860786800F0EC
:100ED000D9FD0346FB7397F90F30002B37D17B68A0
:100EE00000221A707B6893F83730002B08D107F185
:100EF0000E017B680122012000F02FF80346FB73EE
:100F000097F90F30002B22D107F10D017B680122E8
:100F1000012000F022F80346FB7397F90F30002BF5
:100F200015D17B7B002B05D0786800F0E7FD0346E8
:100F3000FB7301E0FC23FB7397F90F30002B06D104
:100F40007B7B7968184600F0BDFD0346FB7397F97B
:100F50000F3018461037BD4680BD90B587B000AF42
:100F6000B9607A603B600346FB73386800F08AFD25
:100F70000346FB7597F91730002B1FD1BB68002B78
:100F80001CD03B6893F83730002B03D1FB7B63F018
:100F90007F03FB733B68DC69F87B3B687A68B96860
:100FA000A04703461A463B6883F828203B6893F91C
:100FB0002830002B04D0FE23FB7501E0FF23FB75D6
:100FC00097F9173018461C37BD4690BD90B587B0CD
:100FD00000AFB9607A603B600346FB730023BB75CA
:100FE000386800F04FFD0346FB7597F91730002B6A
:100FF00044D1BB68002B41D03B6893F83730002BBD
:101000001ED13B681C6AFA7BBB7D1344D8B2BB7D02
:10101000BA68D1183B685B680122A04703461A46AC
:101020003B6883F82820BB7D0133BB75BB7D7A68A4
:101030009A421BD93B6893F92830002BE1D015E088
:101040003B6893F83730012B04D03B6893F8373076
:10105000022B0BD13B681C6AF87B3B687A68B96845
:10106000A04703461A463B6883F828203B6893F95B
:101070002830002B04D0FE23FB7501E0FF23FB7515
:1010800097F9173018461C37BD4690BD80B584B01F
:1010900000AF7860B6233B7307F10C017B68012237
:1010A0007E20FFF793FF0346FB7397F90F30002B69
:1010B0002FD17B685B6A7A68526811464FF4FA60F8
:1010C00098477B6893F83730002B08D107F10E0161
:1010D0007B6801220120FFF740FF0346FB7397F96D
:1010E0000F30002B15D107F10D037968184600F079
:1010F00016F80346FB7397F90F30002B09D17B7B61
:1011000003F01003002B02D00023FB7301E0FA234D
:10111000FB7397F90F3018461037BD4680BD80B578
:1011200084B000AF786039607B68002B08D03B68E2
:10113000012279682720FFF710FF0346FB7301E0C7
:10114000FF23FB7397F90F3018461037BD4680BD5B
:1011500080B584B000AF786039607B68002B3FD0E9
:1011600007F10C013B6801223720FFF7F6FE03462A
:10117000FB7397F90F30002B34D13B7B03F0030353
:10118000BB73BB7B032B28D801A252F823F000BF0E
:10119000A1110008C3110008CB110008D3110008E9
:1011A0003B7BDB097B737B7B002B06D1396878683E
:1011B00000F0F3FC0346FB7314E07B6800221A7016
:1011C00010E07B6801221A700CE07B6802221A7022
:1011D00008E07B6803221A7004E0F923FB7301E046
:1011E000FF23FB7397F90F3018461037BD4680BDBB
:1011F00080B584B000AF03463960FB7107F10E0380
:1012000039681846FFF7A4FF0346FB7397F90F30C0
:10121000002B37D1BB7B002B11D03968002000F0A8
:1012200070FD0346FB7397F90F30002B07D13B6825
:101230005B6A3A685268114640F6C410984797F9BD
:101240000F30002B1ED1FB79042B09D0042B15DCA9
:10125000002B16D0002B11DB013B022B0ED805E032
:10126000386800F0E1FC0346FB730BE0FB7939685A
:10127000184600F046FD0346FB7303E0F923FB73B9
:1012800000E000BF97F90F3018461037BD4680BD0B
:1012900080B584B000AF786039607B68002B58D08F
:1012A00007F10E013B6801221520FFF756FE0346A9
:1012B000FB7397F90F30002B4DD1BB7B5BB223F052
:1012C00001035AB27B681B785BB203F001035BB287
:1012D00013435BB2DBB2BB73BB7B5BB223F0020395
:1012E0005AB27B685B785BB25B005BB203F00203CF
:1012F0005BB213435BB2DBB2BB73BB7B5BB223F06D
:1013000004035AB27B689B785BB29B005BB203F02C
:1013100004035BB213435BB2DBB2BB73BB7B5BB258
:1013200023F008035AB27B68DB785BB2DB005BB268
:1013300003F008035BB213435BB2DBB2BB7307F18C
:101340000E013B6801221520FFF740FE0346FB73A8
:1013500001E0FF23FB7397F90F3018461037BD46A5
:1013600080BD90B585B000AF0446084611461A46C8
:101370002346FB710346BB710B467B7113463B71E1
:101380000023BB7300237B7300233B7307F10E0123
:101390003B6A01221420FFF7E0FD0346FB7397F937
:1013A0000F30002B60D107F10D013B6A012215209F
:1013B000FFF70CFE0346FB7397F90F30002B53D158
:1013C00007F10C013B6A01222720FFF7C6FD034607
:1013D000FB7397F90F30002B46D1BB7B5BB223F038
:1013E00001035AB297F9073003F001035BB21343CC
:1013F0005BB2DBB2BB73BB7B5BB223F002035AB2BE
:1014000097F906305B005BB203F002035BB2134353
:101410005BB2DBB2BB73BB7B5BB223F004035AB29B
:1014200097F905309B005BB203F004035BB21343F2
:101430005BB2DBB2BB73BB7B5BB223F008035AB277
:1014400097F90430DB005BB203F008035BB213438F
:101450005BB2DBB2BB7307F10E013B6A01221420C1
:10146000FFF7B4FD0346FB7397F90F3018461437A6
:10147000BD4690BD80B584B000AF786039607B68B0
:10148000002B2BD007F10C013B6802223620FFF71E
:1014900064FD0346FB7397F90F30002B20D13B7B93
:1014A00003F00703DAB27B681A703B7BDB10DBB218
:1014B00003F00703DAB27B685A703B7B9B11DBB207
:1014C00003F00103DAB27B689A707B7B9B10DBB27E
:1014D00003F01F03DAB27B68DA7001E0FF23FB73CD
:1014E00097F90F3018461037BD4680BD80B584B0DF
:1014F00000AF786039600023FB730023BB817B68F9
:10150000002B65D07B68DB78172B04D8386800F097
:101510002DFC0346FB7397F90F30002B5AD107F1CE
:101520000C013B6802223620FFF717FD0346FB73D0
:1015300097F90F30002B4DD13B7B5BB223F00703B3
:101540005AB27B681B785BB203F007035BB21343AC
:101550005BB2DBB23B733B7B5BB223F038035AB226
:101560007B685B785BB2DB005BB203F038035BB295
:1015700013435BB2DBB23B733B7B5BB223F04003B4
:101580005AB27B689B785BB29B015BB203F040036D
:101590005BB213435BB2DBB23B737B7B5BB223F08A
:1015A0007C035AB27B68DB785BB29B005BB203F0D2
:1015B0007C035BB213435BB2DBB27B7307F10C01BC
:1015C0003B6802223620FFF701FD0346FB7301E072
:1015D000FF23FB7397F90F3018461037BD4680BDC7
:1015E00080B584B000AF786039607B68002B2FD065
:1015F00007F10C013B6802223020FFF7AEFC0346E6
:10160000FB733B7BDB10DBB203F00103DAB27B68D8
:101610009A703B7B5B11DBB203F00103DAB27B68AB
:10162000DA703B7B9B10DBB203F00103DAB27B681C
:101630001A717B7B03F00703DAB27B681A707B7B3D
:10164000DB10DBB203F00703DAB27B685A7001E00B
:10165000FF23FB7397F90F3018461037BD4680BD46
:1016600080B584B000AF786039600023FB737B687D
:10167000002B41D07B681B78002B03D17B685B7803
:10168000002B04D0386800F071FB0346FB7397F918
:101690000F30002B32D107F10E0339681846FFF7DF
:1016A00057FD0346FB7397F90F30002B26D1BB7B08
:1016B000002B05D039680020FFF79AFD0346FB7325
:1016C00097F90F30002B05D13968786800F06DFB71
:1016D0000346FB7397F90F30002B0FD1BB7B002B18
:1016E0000CD0BB7B042B09D0BB7B39681846FFF7B5
:1016F0007FFD0346FB7301E0FF23FB7397F90F3077
:1017000018461037BD4680BD80B584B000AF786004
:1017100039600023FB737B68002B57D007F10E0163
:101720003B6801221620FFF718FC0346FB7397F96C
:101730000F30002B28D1BB7B03F01F03DAB27B688C
:101740009A72BB7B5B11DBB203F00103DAB27B68F8
:101750005A7207F10E013B6801221820FFF7FDFBCA
:101760000346FB7397F90F30002B0DD1BB7B03F0C1
:101770000303DAB27B689A71BB7B9B10DBB203F088
:101780000703DAB27B68DA7197F90F30002B1FD1AB
:1017900007F10E013B6801223020FFF7DEFB034614
:1017A000FB7397F90F30002B12D1BB7B1B11DBB2FF
:1017B00003F00103DAB27B68DA72BB7B9B11DBB208
:1017C00003F00103DAB27B681A7301E0FF23FB73B5
:1017D00097F90F3018461037BD4680BD80B584B0EC
:1017E00000AF786039600023FB737B68002B00F04A
:1017F00092807B689B79002B04D0386800F0B6FAA1
:101800000346FB7397F90F30002B40F086807B680E
:10181000DB7ABB737B681B7B7B73797BBB7B3A6812
:10182000184600F02AFB0346FB7397F90F30002B94
:1018300073D107F10C013B6801221620FFF78DFBE5
:101840000346FB7397F90F30002B18D13B7B5BB23B
:1018500023F020035AB27B685B7A5BB25B015BB218
:1018600003F020035BB213435BB2DBB23B7307F1BF
:101870000C037968184600F070FB0346FB7397F978
:101880000F30002B08D107F10C013B680122162014
:10189000FFF79CFB0346FB7397F90F30002B08D131
:1018A00007F10C013B6801221820FFF756FB0346A5
:1018B000FB7397F90F30002B1FD13B7B5BB223F0FA
:1018C00003035AB27B689B795BB203F003035BB2FC
:1018D00013435BB2DBB23B733B7B5BB223F01C0375
:1018E0005AB27B68DB795BB29B005BB203F01C03EE
:1018F0005BB213435BB2DBB23B7397F90F30002B43
:101900000BD107F10C013B6801221820FFF75EFBA9
:101910000346FB7301E0FF23FB7397F90F30184672
:101920001037BD4680BD80B586B000AFF860B960A5
:101930007A60BB68002B34D0FB68002B31D007F1F4
:1019400016017B6801221720FFF707FB0346FB7592
:1019500097F91730002B27D1BB7D03F03F03DAB294
:10196000BB681A72BB689B79012B03D0BB689B795B
:10197000022B08D1BB681B7A1A46520013449AB254
:10198000FB681A8010E0BB689B79032B0CD1BB6805
:101990001B7A1A46520013445B009AB2FB681A8005
:1019A00002E0FF23FB7500E000BF97F917301846EF
:1019B0001837BD4680BD80B584B000AF786039600F
:1019C0007B68002B20D007F10C033A687968184631
:1019D000FFF7A9FF0346FB7397F90F30002B15D1D2
:1019E0007B689A88BB899A4202D9BA897B689A80B7
:1019F0007B6819687B689B881A463B682920FFF73B
:101A0000ACFA0346FB7301E0FF23FB7397F90F3039
:101A100018461037BD4680BD80B584B000AF7860F1
:101A200039600023FB730023BB737B68002B1FD03E
:101A30003B68002B1CD00023BB810EE0BB7BDB008E
:101A40003A68134407F10C017A68184600F0D2FA9C
:101A50000346FB73BB7B0133BB737B689A88BB89EE
:101A60009A4208D997F90F3013F1090FE6D102E035
:101A7000FF23FB7300E000BF97F90F3018461037C3
:101A8000BD4680BD80B485B000AF78607B68002B18
:101A90000BD07B68DB69002B07D07B681B6A002BAF
:101AA00003D07B685B6A002B02D1FF23FB7301E04C
:101AB0000023FB7397F90F3018461437BD465DF8C5
:101AC000047B704780B485B000AF03463960FB717A
:101AD000FB79502B02D0FB79512B05D13B68FA7969
:101AE0001A700023FB7301E0FD23FB7397F90F309D
:101AF00018461437BD465DF8047B704780B584B046
:101B000000AF786007F10E037968184600F0DEFB3D
:101B10000346FB7397F90F30002B38D1BB7B03F0E2
:101B20000203002B31D0BB7B03F00403002B2CD12C
:101B300007F10D0379681846FFF7F1FA0346FB73C6
:101B400097F90F30002B22D17B7B03F01003002B81
:101B500002D00023FB731AE07868FFF797FA40F68B
:101B6000B83000F001FF07F10D0379681846FFF760
:101B7000D6FA0346FB7397F90F30002B02D197F981
:101B80000F3006E0FB23FB7301E0FB23FB7397F9A7
:101B90000F3018461037BD4680BD80B586B000AF07
:101BA0007860396007F1100300221A601A7100236F
:101BB000FB6007F116013B6801221820FFF7CDF901
:101BC0000346FB75BB7D03F00303DBB2BB7597F9DE
:101BD0001730002B13D107F10C0339681846FFF7B3
:101BE00049FC0346FB7597F91730002B07D107F125
:101BF000100339681846FFF7F3FC0346FB75FB7BBF
:101C0000182B0BD9BB7D002B08D13B7C002B05D1B9
:101C10007B7C002B02D17B6804221A7097F9173065
:101C200018461837BD4680BD80B584B000AF7860D7
:101C300007F10E017B6801223720FFF78EF903467A
:101C4000FB7397F90F30002B55D1BB7B03F07F035B
:101C5000DBB2BB73BB7B5BB223F07C035BB243F0B4
:101C600070035BB2DBB2BB7307F10E017B6801222C
:101C70003720FFF7ABF90346FB7397F90F30002BC2
:101C80001AD107F10E017B6801223120FFF765F9B7
:101C90000346FB7397F90F30002B0DD1BB7B23F06C
:101CA0003F03DBB2BB7307F10E017B6801223120D9
:101CB000FFF78CF90346FB7397F90F30002B1AD10D
:101CC00007F10E017B6801221820FFF746F9034651
:101CD000FB7397F90F30002B0DD1BB7B23F003036F
:101CE000DBB2BB7307F10E017B6801221820FFF7FE
:101CF0006DF90346FB7397F90F3018461037BD4650
:101D000080BD80B584B000AF03463960FB7107F138
:101D10000E013B6801223720FFF71FF90346FB73D2
:101D200097F90F30002B1BD1BB7B63F07F03DBB235
:101D3000BB73BB7B5BB223F003035AB297F9073046
:101D400003F003035BB213435BB2DBB2BB7307F177
:101D50000E013B6801223720FFF738F90346FB7379
:101D600097F90F3018461037BD4680BD80B584B056
:101D700000AF786007F10E0379681846FFF7E8F9BD
:101D80000346FB7397F90F30002B08D1BB7B042B64
:101D900005D179680020FFF72BFA0346FB7397F90A
:101DA0000F3018461037BD4680BD80B584B000AFF7
:101DB0007860396007F10C013B6802223020FFF7A0
:101DC000CCF80346FB7397F90F30002B4FD13B7BC8
:101DD0005BB223F008035AB27B689B785BB2DB00EE
:101DE0005BB203F008035BB213435BB2DBB23B733D
:101DF0003B7B5BB223F020035AB27B68DB785BB29B
:101E00005B015BB203F020035BB213435BB2DBB256
:101E10003B733B7B5BB223F004035AB27B681B79B4
:101E20005BB29B005BB203F004035BB213435BB293
:101E3000DBB23B737B681B787B737B7B5BB223F0ED
:101E400038035AB27B685B785BB2DB005BB203F0AD
:101E500038035BB213435BB2DBB27B7307F10C0157
:101E60003B6802223020FFF7B1F80346FB7397F975
:101E70000F3018461037BD4680BD80B584B000AF26
:101E800003463A60FB710B46BB710023BB7307F13D
:101E90000D0339681846FFF75BF90346FB7397F9A2
:101EA0000F30002B53D17B7B002B05D039680020ED
:101EB000FFF79EF90346FB7397F90F30002B35D1DE
:101EC00007F10E013B6801223020FFF746F8034678
:101ED000FB7397F90F30002B28D1BB7B5BB223F04B
:101EE00010035AB297F907301B015BB203F01003DD
:101EF0005BB213435BB2DBB2BB73BB7B5BB223F061
:101F000040035AB297F906309B015BB203F04003DD
:101F10005BB213435BB2DBB2BB7307F10E013B68EC
:101F200001223020FFF752F80346FB7397F90F3078
:101F3000002B0CD17B7B002B09D07B7B042B06D0A4
:101F40007B7B39681846FFF753F90346FB7397F913
:101F50000F3018461037BD4680BD80B485B000AF45
:101F6000786039600023FB733B689B79012B03D0B9
:101F70003B689B79022B18D13B689B7A1F2B11D8A9
:101F80007B681B785BB223F01F035AB23B689B7AD5
:101F90005BB203F01F035BB213435BB2DAB27B6840
:101FA0001A701EE0F823FB731BE03B689B79032B40
:101FB00017D13B689B7A0F2B11D87B681B785BB2DB
:101FC00023F01F035AB23B689B7A5BB203F01F03F6
:101FD0005BB213435BB2DAB27B681A7001E0F8239C
:101FE000FB7397F90F3018461437BD465DF8047B34
:101FF0007047000080B588B000AFF860B9607A60C3
:102000000023FB777B689B79032B00F0B480032BC4
:1020100000F34981012B02D0022B56D043E17B68AB
:102020001B68BA68128813441B787F2B11D17B6818
:102030001A68BB681B88013313441B787F2B08D1B7
:102040007B681A68BB681B88023313441B787F2B9C
:1020500034D07B681A68BB681B88023313441B7832
:102060001A047B681968BB681B8801330B441B7812
:102070001B0213437A681268B96809880A44127807
:102080001343BB61B869FEF71DFA4FF000028D4B98
:10209000FEF7ACFB02460B4610461946FEF72CFD38
:1020A0000246FB685A60FB684FF000021A60BB688A
:1020B0001B8803339AB2BB681A80FDE0F723FB77D5
:1020C0007B689A88BB681A80F6E07B681B68BA68F0
:1020D000128813441B787F2B11D17B681A68BB6868
:1020E0001B88013313441B787F2B08D17B681A6847
:1020F000BB681B88023313441B787F2B34D07B686A
:102100001A68BB681B88023313441B781A047B6867
:102110001968BB681B8801330B441B781B021343EF
:102120007A681268B96809880A44127813437B6197
:102130007869FEF7B7F94FF00002634BFEF756FBE4
:1021400002460B4610461946FEF7D6FC0246FB68CF
:102150001A60FB684FF000025A60BB681B880333AB
:102160009AB2BB681A80A7E0F723FB777B689A884E
:10217000BB681A80A0E07B681B68BA6812881344A9
:102180001B787F2B2CD17B681A68BB681B880133B6
:1021900013441B787F2B23D17B681A68BB681B888C
:1021A000023313441B787F2B1AD17B681A68BB68F3
:1021B0001B88033313441B787F2B11D17B681A686B
:1021C000BB681B88043313441B787F2B08D17B68C2
:1021D0001A68BB681B88053313441B787F2B5BD0C0
:1021E0007B681A68BB681B88023313441B781A0487
:1021F0007B681968BB681B8801330B441B781B0282
:1022000013437A681268B96809880A44127813433C
:10221000BB617B681A68BB681B88053313441B7855
:102220001A047B681968BB681B8804330B441B784D
:102230001B0213437A681168BA68128803320A4491
:10224000127813437B61B869FEF73CF94FF0000246
:102250001C4BFEF7CBFA02460B4610461946FEF71A
:102260004BFC0246FB685A607869FEF71BF94FF099
:102270000002154BFEF7BAFA02460B461046194605
:10228000FEF73AFC0246FB681A60BB681B880633FF
:102290009AB2BB681A800FE0F723FB777B689A88B5
:1022A000BB681A8008E0FB684FF000021A60FB6808
:1022B0004FF000025A6000BF97F91F3018462037D0
:1022C000BD4680BD0000F0400000504080B584B0A5
:1022D00000AF786039607B68002B08D03B68012232
:1022E00079682820FEF739FE0346FB7301E0FF23DF
:1022F000FB7397F90F3018461037BD4680BDB0B557
:1023000098B004AFB9607A603B600346FB733B68EA
:1023100007F110041D460FCD0FC40FCD0FC40FCD14
:102320000FC495E8030084E803003B7E87F84F3034
:102330007B69BB6497F84F3099B2FB7B9AB27B689C
:102340009BB2FF2002900193BB6800930123B86CFD
:1023500003F0E8FA03465BB218465037BD46B0BDFD
:10236000B0B598B004AFB9607A603B600346FB73C8
:102370003B6807F110041D460FCD0FC40FCD0FC4ED
:102380000FCD0FC495E8030084E803003B7E87F877
:102390004F307B69BB6497F84F3099B2FB7B9AB2A0
:1023A0007B689BB2FF2002900193BB6800930123DE
:1023B000B86C03F0A3F903465BB218465037BD462C
:1023C000B0BD80B487B000AFB9607A603B600346AF
:1023D000FB733B681B78FB75002318461C37BD4612
:1023E0005DF8047B704780B487B000AFB9607A6055
:1023F0003B600346FB733B681B78FB750023184664
:102400001C37BD465DF8047B704780B582B000AFD5
:1024100078603960786800F0A7FA00BF0837BD46D9
:1024200080BD000080B584B000AF78600B46FB70C3
:102430000023FB73FB78012B0AD17B68114ADA6118
:102440007B68114A1A627B68012283F837200CE00E
:10245000FB78002B09D17B680C4ADA617B680C4A57
:102460001A627B68002283F837200A2000F0BAFA4B
:102470007B68084A5A6297F90F3018461037BD46F4
:1024800080BD00BFFF22000861230008C3230008AD
:10249000E72300080B24000880B584B000AF786003
:1024A0000023FB727B684F4A5A607B6838334D4A81
:1024B0005A607B6870334C4A5A607B68A8334A4A3A
:1024C0005A607B688C221A727B6838338E221A72AB
:1024D0007B6870338C221A727B68A8338E221A7242
:1024E0000023FB6075E0FA681346DB009B1ADB00F3
:1024F0001A467B68134401211846FFF793FFFA68D8
:102500001346DB009B1ADB001A467B68134418460F
:10251000FEF7BCFD0346FB72FA681346DB009B1A0C
:10252000DB001A467B681344FA7A83F834200320D0
:1025300001F0E6FF97F90B30002B47D1FA681346FC
:10254000DB009B1ADB001A467B6813441846FEF733
:10255000B9FC0346FB72FA681346DB009B1ADB00EA
:102560001A467B681344FA7A83F835201F4AFB68C1
:102570001344FA7A1A7097F90B30002B26D1FA68B7
:102580001346DB009B1ADB001A467B68134403F1F9
:102590000C00FA681346DB009B1ADB001A467B68C6
:1025A0001344194600F03AF80346FB72FA681346E2
:1025B000DB009B1ADB001A467B681344FA7A83F827
:1025C00036200B4AFB681344FA7A1A70FB68013311
:1025D000FB60FB68032B86DD00BF00BF1037BD46E4
:1025E00080BD00BF5C010020B0010020480A00202F
:1025F000400A002080B584B000AF78600023FB73F0
:102600007B680C337968184600F08EF80346FB733C
:1026100097F90F3018461037BD4680BD80B588B099
:1026200002AF7860396039680020FEF7E1FD0346AB
:10263000FB7597F91730002B70D107F10C0339683F
:102640001846FEF717FF0346FB7597F91730002B66
:102650001FD10F23FB730123BB7303233B7306239B
:102660007B7307F10C0339681846FEF73FFF0346FA
:10267000FB7597F91730002B0BD107233B74072309
:102680007B7407F1100339681846FEF7E9FF03462B
:10269000FB7597F91730002B1ED139687868FFF762
:1026A00033F80346FB7597F91730002B14D17B687C
:1026B00000225A727B6803229A717B680022DA71C9
:1026C0007B680122DA727B6801221A7339687868A4
:1026D000FFF784F80346FB7597F91730002B17D1E5
:1026E0003B6800930123002201210020FEF739FE00
:1026F0000346FB7597F91730002B09D101237B7234
:1027000007F1080339681846FEF7C2FD0346FB755A
:1027100039680120FEF76CFD0346FB7597F9173009
:1027200018461837BD4680BD80B5BCB000AF786094
:102730003960002387F8EF30002387F8EE3000235C
:1027400087F8ED3007F10C0380220021184608F0CD
:1027500069F858E007F1EC0339681846FEF7DFFC2A
:10276000034687F8EF3097F8EC3003F00203002BB4
:1027700044D07B6860229A807B6807F18C021A60E3
:1027800039687868FFF717F9034687F8EF3097F94B
:10279000EF30002B32D107F10C0319467868FFF7B0
:1027A0003BF9034687F8EF3097F9EF30002B20D143
:1027B000002387F8EE3016E097F8EE30DB00F033B8
:1027C0003B44E43B1A683B68DA6297F8EE30DB0082
:1027D000F0333B44E03B1A683B681A6397F8EE30ED
:1027E000013387F8EE307B681B7A97F8EE209A4227
:1027F000E2D397F8ED30013387F8ED3097F8ED30FC
:10280000013387F8ED3097F8ED30132BA2D997F903
:10281000EF301846F037BD4680BD000000000000D4
:1028200080B483B000AF786079684FF000023E4B0F
:10283000C1E900233D4BD3E900237968C1E90223B4
:1028400079684FF000024FF00003C1E90423796872
:102850004FF00002344BC1E9062379684FF00002C3
:10286000314BC1E9082379684FF000024FF00003B3
:10287000C1E90A2379682AA3D3E90023C1E90C231B
:1028800079684FF000024FF00003C1E90E23796828
:102890004FF000024FF00003C1E9102379684FF0B8
:1028A0000002234BC1E9122379684FF000024FF078
:1028B0008043C1E9142379684FF000024FF0000310
:1028C000C1E9162379684FF000024FF00003C1E917
:1028D000182379684FF00002164BC1E91A23796872
:1028E0004FF000024FF00003C1E91C2379684FF05C
:1028F00000024FF00003C1E91E2379684FF0000287
:102900000C4BC1E920237B680122C3F8882000BF5B
:102910000C37BD465DF8047B704700BFAFF3008005
:102920007B14AE47E17A843F0000F03F00000020B6
:102930000000F83F0000244080B500AF0248FFF7D8
:102940006FFF00BF80BD00BFC800002080B400AF93
:10295000044BAA221A6000231846BD465DF8047B8A
:10296000704700BF5801002080B489B000AF786084
:102970000023BB61194B5B687B61194B1A687B684C
:1029800002FB03F33B61154B9B68FB61134B9B6898
:10299000FB60FA68FB699A42F8D0FA68FB699A42D0
:1029A00006D2FA69FB68D31ABA691344BB6107E01F
:1029B0007A69FB68D21AFB691344BA691344BB6194
:1029C000FB68FB61BA693B699A4200D2DEE700BF4F
:1029D00000BF2437BD465DF8047B704710E000E07F
:1029E0005801002080B582B000AF78607B684FF45A
:1029F0007A7202FB03F31846FFF7B6FF00BF0837F1
:102A0000BD4680BDB0B590B000AF01F042FD00F012
:102A100067F800F0CFF900F09BF900F04DF900F0F5
:102A2000ADF800F0EBF800F029F9254BD3F894301D
:102A300003F00053002B03D0224B01229A7102E0D5
:102A4000204B00229A711E4BD3F894301C4A43F459
:102A50000003C2F894301C4B07F12C041D460FCD27
:102A60000FC42B68236007F12C030021184606F0E1
:102A70008EFC0346154A1360154B07F118041D46DA
:102A80000FCD0FC42B68236007F1180300211846EF
:102A900006F07DFC03460F4A13600F4B3C1D1D469C
:102AA0000FCD0FC42B6823603B1D0021184606F094
:102AB0006EFC0346094A136006F062FC00BFFDE7A6
:102AC00000100240480A0020C4BB00086803002030
:102AD000E4BB00086C03002004BC00087003002065
:102AE00080B594B000AF07F11803382200211846D2
:102AF00007F098FE3B1D00221A605A609A60DA6067
:102B00001A61002003F0E0FB0A23BB614FF48073DD
:102B10007B624023BB620123FB6202237B630223AF
:102B2000BB630423FB6355233B6402237B640223C2
:102B3000BB640223FB6407F11803184603F078FC1A
:102B40000346002B01D000F085F90F237B6003239F
:102B5000BB600023FB6000233B6100237B613B1DC6
:102B60000421184603F076FF0346002B01D000F045
:102B700071F900BF5037BD4680BD000080B500AF81
:102B80001B4B1C4A1A601A4B1B4A5A60184B0022F6
:102B90009A60174B0122DA60154B00221A61144B20
:102BA00000225A61124B00229A61114B0022DA6115
:102BB0000F4B00221A620E4802F004FD0346002B60
:102BC00001D000F047F90021094803F087FA0346D5
:102BD000002B01D000F03EF90021054803F0C9FAAE
:102BE0000346002B01D000F035F900BF80BD00BFC7
:102BF0005C010020005400403612624080B500AFF6
:102C00001B4B1C4A1A601A4B1B4A5A60184B002275
:102C10009A60174B0122DA60154B00221A61144B9F
:102C200000225A61124B00229A61114B0022DA6194
:102C30000F4B00221A620E4802F0C4FC0346002B20
:102C400001D000F007F90021094803F047FA0346D4
:102C5000002B01D000F0FEF80021054803F089FAAE
:102C60000346002B01D000F0F5F800BF80BD00BF87
:102C7000B0010020005800403612624080B500AF1D
:102C80000B4B0C4A1A600A4B02225A60084B40F662
:102C9000C412DA60064B40F6C4129A60044803F08E
:102CA000B4FA0346002B01D000F0D4F800BF80BD79
:102CB000040200200030004080B500AF224B234AC0
:102CC0001A60214B4FF4E1325A601F4B00229A6088
:102CD0001D4B0022DA601C4B00221A611A4B0C2299
:102CE0005A61194B00229A61174B0022DA61164B88
:102CF00000221A62144B00225A62134B00229A627D
:102D0000114804F00BFE0346002B01D000F0A2F89E
:102D100000210D4806F0FDF90346002B01D000F01C
:102D200099F80021084806F032FA0346002B01D03A
:102D300000F090F8044806F0B3F90346002B01D0E8
:102D400000F088F800BF80BD140200200038014068
:102D500080B582B000AF164B9B6C154A43F004035C
:102D60009364134B9B6C03F004037B607B68104BF4
:102D70009B6C0F4A43F0010393640D4B9B6C03F073
:102D800001033B603B68002205210B2001F092FC0F
:102D90000B2001F0A9FC002205210C2001F08AFC87
:102DA0000C2001F0A1FC00BF0837BD4680BD00BF6C
:102DB0000010024080B588B000AF07F10C0300227C
:102DC0001A605A609A60DA601A61174BDB6C164A17
:102DD00043F00203D364144BDB6C03F00203BB60CB
:102DE000BB68114BDB6C104A43F00103D3640E4BFC
:102DF000DB6C03F001037B607B68002201210B4840
:102E000002F0AEFB0123FB6001233B6100237B61E9
:102E10000023BB6107F10C031946044802F01EFAB7
:102E200000BF2037BD4680BD0010024000040048AE
:102E300080B582B000AF78607B681B68044A93421B
:102E400001D101F03FFB00BF0837BD4680BD00BF88
:102E5000002C014080B400AF72B600BF00BFFDE798
:102E600080B582B000AF124B1B6E114A43F00103D4
:102E700013660F4B1B6E03F001037B607B680C4BEA
:102E80009B6D0B4A43F080539365094B9B6D03F098
:102E900080533B603B6800220F216FF0010001F07E
:102EA00009FC03F0B5FA00BF0837BD4680BD00BF7E
:102EB0000010024080B59EB000AF786007F1640357
:102EC00000221A605A609A60DA601A6107F12003E2
:102ED00044220021184607F0A5FC7B681B684C4A79
:102EE000934254D140233B620023BB6307F120038C
:102EF000184603F0FDFF0346002B01D0FFF7AAFFA1
:102F0000444BDB6C434A43F00103D364414BDB6C1D
:102F100003F00103FB61FB693E4BDB6C3D4A43F070
:102F20000203D3643B4BDB6C03F00203BB61BB6960
:102F30004FF400437B661223BB660023FB6600232D
:102F40003B6704237B6707F1640319464FF0904009
:102F500002F084F980237B661223BB660023FB66A4
:102F600000233B6704237B6707F1640319462A4863
:102F700002F074F9274B9B6D264A43F400139365C6
:102F8000244B9B6D03F400137B617B693CE07B6801
:102F90001B68224A934237D180233B620023FB63A4
:102FA00007F12003184603F0A3FF0346002B01D0CE
:102FB000FFF750FF174BDB6C164A43F00103D36455
:102FC000144BDB6C03F001033B613B694FF440732E
:102FD0007B661223BB660023FB6600233B6704234A
:102FE0007B6707F1640319464FF0904002F036F911
:102FF000084B9B6D074A43F480039365054B9B6D1B
:1030000003F48003FB60FB6800BF7837BD4680BDDA
:1030100000540040001002400004004800580040E6
:1030200080B59CB000AF786007F15C0300221A60A5
:103030005A609A60DA601A6107F11803442200218D
:10304000184607F0EFFB7B681B685B4A934240F031
:10305000AF800123BB610023FB6107F11803184611
:1030600003F046FF0346002B01D0FFF7F3FE534B5E
:103070001B6E524A43F480431366504B1B6E03F49D
:1030800080437B617B694D4BDB6C4C4A43F0010311
:10309000D3644A4BDB6C03F001033B613B69474B54
:1030A000DB6C464A43F00203D364444BDB6C03F011
:1030B0000203FB60FB684FF48063FB6502233B6601
:1030C00000237B660023BB660723FB6607F15C03D6
:1030D00019464FF0904002F0C1F84023FB650223EF
:1030E0003B6600237B660023BB660723FB6607F174
:1030F0005C031946324802F0B1F8324B324A1A608A
:10310000304B18225A602F4B00229A602D4B002220
:10311000DA602C4B80221A612A4B00225A61294B1B
:1031200000229A61274B0022DA61264B00221A62A4
:10313000244801F0E7FA0346002B01D0FFF78AFE8E
:103140007B68204AC3F880201E4A7B6893621F4B2D
:103150001F4A1A601D4B19225A601C4B10229A609C
:103160001A4B0022DA60194B80221A61174B002299
:103170005A61164B00229A61144B0022DA61134BFC
:1031800000221A62114801F0BDFA0346002B01D05B
:10319000FFF760FE7B680D4ADA670C4A7B68936232
:1031A00000220521252001F085FA252001F09CFA56
:1031B00000BF7037BD4680BD00380140001002409E
:1031C00000040048A8020020080002400803002074
:1031D0001C00024080B58CB000AF78600023BB6259
:1031E00000237B622C4B1B6E2B4A43F40063136657
:1031F000294B1B6E03F40063BB60BB6807F10C0234
:1032000007F110031146184603F0FAFD03F0E2FD42
:10321000B862BB6A214AA2FB03239B0C013B7B6281
:103220001F4B204A1A601E4B40F2E732DA601C4AFC
:103230007B6A53601A4B00221A61194B00229A6074
:10324000174804F045F8034687F82F3097F82F30D9
:10325000002B1BD1124804F09DF8034687F82F304D
:1032600097F82F30002B11D1192001F03DFA7B681F
:103270000F2B08D800227968192001F01BFA0A4A9E
:103280007B68136002E0012387F82F3097F82F3016
:1032900018463037BD4680BD0010024083DE1B4318
:1032A00074030020002C01402800002080B400AFEF
:1032B00000BFFDE780B400AF00BFFDE780B400AF02
:1032C00000BFFDE780B400AF00BFFDE780B400AFF2
:1032D00000BFFDE780B400AF00BFBD465DF8047BD2
:1032E0007047000080B500AF024801F0EEFB00BF60
:1032F00080BD00BFA802002080B500AF024801F0E9
:10330000E4FB00BF80BD00BF0803002080B500AF14
:10331000024804F0A9F800BF80BD00BF740300207C
:1033200080B500AF024804F0C9FB00BF80BD00BFFC
:103330001402002080B400AF064BD3F88830054A51
:1033400043F47003C2F8883000BFBD465DF8047BCB
:10335000704700BF00ED00E080B586B000AF786038
:1033600006F004FC0346FB60FFF7F0FA4748FFF75E
:1033700093F800237B6161E07A691346DB009B1AB6
:10338000DB00424A13441846FFF734F90346FB7446
:103390003F4A7B691344FA7C1A7097F91330002B6B
:1033A00049D17B69012B23DC38497A691346DB005C
:1033B0009B1ADB000B442C3393ED007A354BD3ED95
:1033C000097A77EE277AB0EE670A002000F06AF8F3
:1033D0002E497A691346DB009B1ADB000B4430331D
:1033E000D3ED007AB0EE670A012000F05BF822E02E
:1033F00026497A691346DB009B1ADB000B442C3309
:1034000093ED007A234BD3ED097A77EE277AB0EE6D
:10341000670A022000F046F81C497A691346DB006F
:103420009B1ADB000B443033D3ED007AB0EE670A11
:10343000032000F037F87B6901337B617B69032B44
:103440009ADD07F10C031421184606F0DBF9124B44
:103450001B68002B04D106F089FB03460E4A13605B
:1034600006F084FB02460C4B1B68D31AB3F5487F69
:1034700007D306F07BFB0346074A1360074802F0B8
:1034800013FF0121064802F083F872E7C003002011
:10349000380A00207C0A0020340A002004020020A0
:1034A00000040048B0B485B000AF034687ED000AC1
:1034B000FB71FB79062B4ED83123FB7217E0F879AC
:1034C000FB7A5A1EF979FB7A254C322505FB00F070
:1034D00002449200224412682148322404FB01F184
:1034E0000B449B0003441A60FB7A013BFB72FB7A9E
:1034F000002BE4D1FB791A4AC82101FB03F31344E2
:103500003A681A604FF00003FB600023BB7213E0BF
:10351000FA79BB7A1249322000FB02F213449B0075
:103520000B44D3ED007A97ED037A77EE277AC7ED57
:10353000037ABB7A0133BB72BB7A312BE8D9FB79B2
:1035400097ED037ADFED076AC7EE267A064A9B00FD
:103550001344C3ED007A00BF1437BD46B0BC7047BA
:10356000BC04002000004842A0040020B0B598B080
:1035700000AFF860B9607A60BB687B6501F060FC01
:103580000023FB6540E04FF000024FF00003C7E965
:1035900012237A68FB6DD31A3B653B6D072B09D963
:1035A0007A6DFB6D13441C685D6822462B46C7E9A3
:1035B00012231BE00023BB6508E007F14002BB6D4E
:1035C0001344FF221A70BB6D0133BB65BB6D072B23
:1035D000F3D97A6DFB6DD11807F140033A6D1846A7
:1035E00007F0BAF9D7E91023C7E91223FA68FB6D8F
:1035F000D118D7E91223002001F0B6FB0346002BB7
:1036000007D1FB6D0833FB65FA6D7B689A42BAD32C
:1036100000E000BF01F036FC7B682C2B0DD807F1D1
:1036200014037A681946F86800F00BF807F11403E0
:103630007A68B968184607F0E5F800BF6037BD46FC
:10364000B0BD80B487B000AFF860B9607A60BB6885
:103650003B6100237B610BE0FA687B6913441946E8
:103660003A697B6913440A781A707B6901337B617C
:103670007A697B689A42EFD300BF00BF1C37BD4612
:103680005DF8047B704780B588B000AF786001F0CA
:10369000D7FB00233B617B6803F17843DB0ABB6106
:1036A0000123FB6107F10C0207F1100311461846D4
:1036B00001F0B0FC01F0E6FB00BF2037BD4680BD45
:1036C000B0B588B000AF78600B467B800023FB77F5
:1036D0007B681B684A4A934240F08D80494B1B78B7
:1036E0004C2B3BD1474B5B78472B37D1464A454B58
:1036F00014461D460FCD0FC40FCD0FC495E807002B
:1037000084E807000023FB770223BB6109E03D4A00
:10371000BB6913441A78FB7F5340FB77BB690133C5
:10372000BB61BB692B2BF2D9FB7F002B54D1364BED
:10373000D3F803303B61344BD3F80730FB60334A96
:103740003B695362314AFB6893623148FFF79BFF44
:103750002C222E492E48FFF709FF3DE0294B1B780C
:103760004C2B39D1274B5B78482B35D1264A254B3A
:1037700014461D460FCD0FC40FCD0FC495E80700AA
:1037800084E807000023FB7702237B6109E01D4AE0
:103790007B6913441A78FB7F5340FB777B690133C5
:1037A0007B617B692B2BF2D9FB7F002B14D1164B4D
:1037B000DB7A002B08D020220021164807F032F8CF
:1037C0001549144807F0C0F81148FFF75CFF2C2298
:1037D0000E490F48FFF7CAFE00F07EF8642209493F
:1037E0000E4805F012FD0E4B1B681A680C4B1B6847
:1037F00022F004021A6000BF2037BD46B0BD00BFF2
:1038000000380140A80A0020500A00207C0A00204D
:1038100000F80108800A00205B0A00201402002042
:10382000A802002080B584B000AF786006F09EF951
:103830000346BB606423FB6064221F491F4805F0F8
:10384000E4FC1F4B1B681A681D4B1B6822F0040226
:103850001A602C221B491C48FFF7F3FE194B1B680A
:103860001A4A93421AD02C220021164806F0DAFF99
:10387000144B164A1A60134B154A5A62114B144ADC
:103880009A6220220021134806F0CCFF0E48FFF771
:10389000FAFE2C220B490C48FFF768FE4FF4FA6041
:1038A00005F09CFD00F018F807F10803F9681846C8
:1038B00005F0A8FFF8E700BFA80A002014020020C6
:1038C000A80200207C0A002000F801085A5AA5A589
:1038D00000009642800A0020B0B582B000AF0023FD
:1038E000FB712C220021204806F09CFF1E4B4C222D
:1038F0001A701D4B47225A701C4B5B6A1A4AC2F859
:1039000003301A4B9B6A184AC2F807302022184924
:10391000184807F021F8184A134B14461D460FCDDE
:103920000FC40FCD0FC495E8070084E807000223F9
:103930003B6009E0104A3B6813441A78FB79534016
:10394000FB713B6801333B603B682A2BF2D90A4A82
:10395000FB7982F82B302C220749084804F02EF816
:1039600000BF0837BD46B0BD500A00207C0A0020C9
:10397000800A00205B0A00200C0B002014020020AB
:10398000B0B5A4B000AF87ED010A7868FCF7ACFDD4
:1039900002460B46C7E922234FF00002A64BD7E9A7
:1039A0002201FDF76BF80346002B0AD04FF000020E
:1039B000A24BD7E92201FCF7EFFD02460B46C7E90F
:1039C000222391A3D3E90023D7E92201FCF70EFFBC
:1039D00002460B46C7E91C239FED8D1B97ED1C0B80
:1039E00007F01EF887ED1A0BD7E91A234FF00000F5
:1039F0009349FCF719FC02460B46144623F0004598
:103A000085A3D3E9002320462946FCF7C5FD0246DD
:103A10000B46C7E918234FF000024FF00003C7E937
:103A200016237FA3D3E90023C7E914237EA3D3E998
:103A30000023C7E912237EA3D3E90023C7E910239B
:103A4000D7E91623D7E91801FDF722F80346002B22
:103A500004D0D7E91223C7E920233DE0D7E9142396
:103A6000D7E91801FDF71EF80346002B04D0D7E96B
:103A70001023C7E920232FE0D7E91623D7E918013F
:103A8000FCF7D2FB02460B4614461D46D7E912232B
:103A9000D7E91001FCF7C8FB02460B462046294631
:103AA000FCF77AFD02460B4614461D46D7E916235D
:103AB000D7E91401FCF7B8FB02460B46204629461D
:103AC000FCF794FE02460B46D7E91201FCF7AEFB69
:103AD00002460B46C7E92023D7E92023D7E918017E
:103AE000FCF75AFD02460B46C7E91823554B5B68A5
:103AF0001846FCF7F9FC02460B46C7E90E234FF0C7
:103B00000002514BD7E90E01FCF78EFB02460B4633
:103B1000C7E90C234D4BD3E90001D7E90C23FCF78F
:103B20003BFD02460B4610461946494BD3E900239C
:103B3000FCF77CFB02460B46C7E90A234FF0000264
:103B40004FF00003C7E9082335A3D3E90023C7E9F1
:103B50000623D7E90823D7E91801FCF799FF0346A4
:103B6000002B06D04FF000024FF00003C7E91E23E0
:103B700028E0D7E90623D7E91801FCF793FF0346AD
:103B8000002B05D04FF000022D4BC7E91E2319E092
:103B9000D7E90823D7E91801FCF746FB02460B4694
:103BA00014461D46D7E90823D7E90601FCF73CFB7C
:103BB00002460B4620462946FCF718FE02460B46F5
:103BC000C7E91E23D7E90A23D7E91E01FCF7E4FC65
:103BD00002460B46C7E90423D7E90423D7E91801B5
:103BE000FCF722FB02460B46C7E90223D7E9022372
:103BF00043EC172BB0EE470AF0EE670A9037BD464C
:103C0000B0BD00BFAFF3008000000000D0BCF840A2
:103C1000EE42739D465AC83FFFFFFFFF7FA2E5407B
:103C2000000000000088B340A60A46257502F03F58
:103C3000A852B3075A01F03F00409F40000059408E
:103C40000000F03FA00400200000384010000020D9
:103C5000980C0020000000002DE9B043A6B000AF92
:103C600087ED010AC7ED000A3868FCF73DFC804685
:103C700089467868FCF738FC02460B4640464946C0
:103C8000FCF7D2FA02460B46C7E920234FF00002A8
:103C90009B4BD7E92001FCF77FFC02460B46C7E9A6
:103CA0002023D7F88040D7F8843023F00045C7E9B7
:103CB0001E45D7E91E0102460B46FCF7B7FA02463D
:103CC0000B461046194686A3D3E90023FCF78EFD68
:103CD00002460B461146396723F000437B6797ED98
:103CE0001C0B06F015FF87ED1A0B4FF000024FF08A
:103CF0000003C7E918237CA3D3E90023C7E91623EF
:103D00007BA3D3E90023C7E914237BA3D3E90023D2
:103D1000C7E91223D7E91823D7E91A01FCF7B8FE3F
:103D20000346002B04D0D7E91423C7E924233DE040
:103D3000D7E91623D7E91A01FCF7B4FE0346002B96
:103D400004D0D7E91223C7E924232FE0D7E91823A9
:103D5000D7E91A01FCF768FA02460B4614461D46DD
:103D6000D7E91423D7E91201FCF75EFA02460B46A5
:103D700020462946FCF710FC02460B4614461D4619
:103D8000D7E91823D7E91601FCF74EFA02460B468D
:103D900020462946FCF72AFD02460B46D7E91401C6
:103DA000FCF744FA02460B46C7E92423D7E924234B
:103DB000D7E91A01FCF7F0FB02460B46C7E91023CE
:103DC000504B5B681846FCF78FFB02460B46C7E971
:103DD0000E234D4BD3E90023D7E90E01FCF724FA5B
:103DE00002460B46C7E90C23484BD3E90001D7E94B
:103DF0000C23FCF7D1FB02460B4610461946444BF8
:103E0000D3E90023FCF712FA02460B46C7E90A235E
:103E10004FF000024FF00003C7E9082332A3D3E9B3
:103E20000023C7E90623D7E90823D7E91001FCF7E7
:103E30002FFE0346002B06D04FF000024FF0000388
:103E4000C7E9222328E0D7E90623D7E91001FCF7C8
:103E500029FE0346002B05D04FF000022D4BC7E989
:103E6000222319E0D7E90823D7E91001FCF7DCF990
:103E700002460B4614461D46D7E90823D7E906013A
:103E8000FCF7D2F902460B4620462946FCF7AEFC69
:103E900002460B46C7E92223D7E90A23D7E92201C4
:103EA000FCF77AFB02460B46C7E90423D7E9042353
:103EB000D7E91001FCF7B8F902460B46C7E902231F
:103EC000D7E90201FCF718FE034607EE903AB0EE80
:103ED000670A9837BD46BDE8B08300BFAFF30080E6
:103EE000CDCCCCCCCC5459400000000000607840D0
:103EF0007089ADBDA771F03F0196DD9B3143F03F66
:103F000000408F40A0040020180000202000002066
:103F1000A00C00200000F03F80B485B000AF87ED1A
:103F2000010A0B23FB720DE0FB7A5A1EFB7A1C4937
:103F300092000A4412681A499B000B441A60FB7AEB
:103F4000013BFB72FB7A002BEED1154A7B681360B4
:103F50004FF00003FB600023BB720EE0BB7A104AF7
:103F60009B001344D3ED007A97ED037A77EE277A1E
:103F7000C7ED037ABB7A0133BB72BB7A0B2BEDD949
:103F8000D7ED037AB2EE087AC7EE876AF0EE667A6A
:103F9000B0EE670A1437BD465DF8047B704700BF7A
:103FA000A80C002080B485B000AF87ED010A0B2378
:103FB000FB720DE0FB7A5A1EFB7A1C4992000A4400
:103FC00012681A499B000B441A60FB7A013BFB7292
:103FD000FB7A002BEED1154A7B6813604FF000038B
:103FE000FB600023BB720EE0BB7A104A9B001344B7
:103FF000D3ED007A97ED037A77EE277AC7ED037A4F
:10400000BB7A0133BB72BB7A0B2BEDD9D7ED037AA8
:10401000B2EE087AC7EE876AF0EE667AB0EE670A0B
:104020001437BD465DF8047B704700BFD80C0020F4
:10403000B0B582B000AF0023FB716B4B41221A7008
:10404000694B4F225A70684B9B780133DAB2664B4A
:104050009A70664BD3ED007AB0EE670AFFF790FCDA
:1040600053EC102B10461946FCF746FD034600EEB4
:10407000103AFFF751FFF0EE407A5B4B17EE902AB3
:10408000C3F80320594BD3ED007A584B93ED027AD5
:10409000F0EE470AB0EE670AFFF7DEFDF0EE407A79
:1040A000514B17EE902AC3F8072005F05FFD02463A
:1040B0004F4B1B68D31A4F4A136005F057FD034658
:1040C0004B4A1360484BD3F8032013461A464A4B19
:1040D000D3ED007A07EE102A77EE677A17EE900A92
:1040E000FCF702FA04460D46424B1B681846FCF7E3
:1040F000D9F94FF00002414BFCF778FB02460B4622
:1041000020462946FCF772FB02460B46104619462C
:1041100033A3D3E90023FCF73FFA02460B461046CF
:104120001946FCF7E9FC0346354A13602E4BD3F8D9
:104130000330314A1360324BD3ED007AB0EE670A98
:10414000FFF730FFF0EE407A274B17EE902AC3F8C6
:104150000B20254BD3F80B3007EE903A17EE903A30
:1041600007EE903AF4EE677AF1EE10FA04D71E4BA0
:104170004FF00002C3F80B201C4BD3ED027A9FEDE9
:10418000217A67EE877AFCEEE77A17EE902A164BD3
:10419000C3F80F20154BD3ED007A9FED1A7A67EE26
:1041A000877AFCEEE77A17EE902A0F4BC3F81320BC
:1041B0000E4B5A680C4BC3F81B200C4BDA680A4BA9
:1041C000C3F81720084B0022DA77074B002283F848
:1041D0002020054B002283F8212000233B6059E07A
:1041E000CDCCCCCCCCCC0C40700C0020A00400205A
:1041F000100D0020140D0020080D002000408F40FD
:104200000C0D00200000C8423B68032B3FDC714AC4
:104210003B68134493F90030002B0CD06E4BDB7FCE
:104220005AB201213B6801FA03F35BB213435BB25C
:10423000DAB2694BDA77694A3B68134493F9003084
:10424000002B0ED0644B93F820305AB201213B680A
:1042500001FA03F35BB213435BB2DAB25E4B83F84D
:1042600020205F4A3B68134493F90030002B0ED0A6
:10427000594B93F821305AB201213B6801FA03F3FC
:104280005BB213435BB2DAB2534B83F821203B6835
:1042900001333B603B68032BB6DD4E4B1B79002B93
:1042A00006D04D4BDB7F43F01003DAB24A4BDA778E
:1042B0004A4B1B79002B08D0474B93F8203043F032
:1042C0001003DAB2444B83F82020454B1B79002BB6
:1042D00008D0414B93F8213043F01003DAB23E4B43
:1042E00083F821203B4B5B79002B06D03A4BDB7FD8
:1042F00043F02003DAB2384BDA77384B5B79002B86
:1043000008D0354B93F8203043F02003DAB2324B1B
:1043100083F82020324B5B79002B08D02E4B93F88A
:10432000213043F02003DAB22B4B83F821202B4BB2
:104330009B79002B08D0284B93F8203043F04003A2
:10434000DAB2254B83F82020254B9B79002B08D02F
:10435000214B93F8213043F04003DAB21E4B83F82F
:104360002120204A1C4B14461D460FCD0FC40FCDF3
:104370000FC42B681A46228002341B0C2370164B84
:10438000002283F822200223FB710DE0124B93F8E8
:104390002220FB791349CB5C5340DAB20E4B83F8F1
:1043A0002220FB790133FB71FB79212BEED90A4BDB
:1043B00093F822200B4B83F82220232209490A4834
:1043C00003F0FCFA03461A46054B1A7100BF083782
:1043D000BD46B0BD480A0020700C0020400A0020F5
:1043E000380A0020700B00201402002080B584B031
:1043F00000AF786005F0BAFB0346BB601423FB6096
:104400004FF47A7005F07EFAFEF796FA0A4BD3F86D
:104410008830202B03D1094B00221A7102E0074B90
:1044200001221A71FFF704FE07F10803F968184624
:1044300005F0E8F900BFF5E714020020480A002063
:104440000D488546FEF776FF0C480D490D4A0023BE
:1044500002E0D458C4500433C4188C42F9D30A4A39
:104460000A4C002301E013600432A242FBD306F0A1
:1044700045FAFEF7C7FAFEE70080002000000020A2
:10448000A400002080BC0008A8000020B03F00204D
:10449000FEE780B582B000AF0023FB71032000F07F
:1044A000FEF80F20FEF796FE0346002B02D00123F4
:1044B000FB7101E0FEF7D4FCFB7918460837BD46D6
:1044C00080BD000080B400AF054B1A68054B1B6827
:1044D0001344034A136000BFBD465DF8047B704778
:1044E000180D00202C00002080B400AF034B1B6887
:1044F0001846BD465DF8047B704700BF180D0020CC
:1045000080B584B000AF7860FFF7EEFFB8607B68DD
:10451000FB60FB68B3F1FF3F04D0094B1B68FA68EE
:104520001344FB6000BFFFF7DFFF0246BB68D31AEE
:10453000FA689A42F7D800BF00BF1037BD4680BD69
:104540002C00002080B485B000AF78607B6803F059
:104550000703FB600C4BDB68BB60BA684FF6FF03D8
:104560001340BB60FB681A02BB68134343F0BF6390
:1045700043F40033BB60044ABB68D36000BF143708
:10458000BD465DF8047B704700ED00E080B400AFED
:10459000044BDB681B0A03F007031846BD465DF8B1
:1045A000047B704700ED00E080B483B000AF0346A9
:1045B000FB7197F90730002B0BDBFB7903F01F022F
:1045C000074997F907305B09012000FA02F241F828
:1045D000232000BF0C37BD465DF8047B704700BF49
:1045E00000E100E080B483B000AF03463960FB71A6
:1045F00097F90730002B0ADB3B68DAB20C4997F9D0
:1046000007301201D2B20B4483F800230AE03B6862
:10461000DAB20849FB7903F00F03043B1201D2B26E
:104620000B441A7600BF0C37BD465DF8047B70471B
:1046300000E100E000ED00E080B489B000AFF86078
:10464000B9607A60FB6803F00703FB61FB69C3F1A3
:104650000703042B28BF0423BB61FB690433062B2B
:1046600002D9FB69033B00E000237B614FF0FF327E
:10467000BB6902FA03F3DA43BB681A407B699A40CC
:104680004FF0FF317B6901FA03F3D9437B680B409C
:10469000134318462437BD465DF8047B704780B548
:1046A00082B000AF78607868FFF74CFF00BF083732
:1046B000BD4680BD80B586B000AF0346B9607A6064
:1046C000FB73FFF763FF78617A68B9687869FFF771
:1046D000B3FF024697F90F3011461846FFF782FFE5
:1046E00000BF1837BD4680BD80B582B000AF03461D
:1046F000FB7197F907301846FFF756FF00BF0837E0
:10470000BD4680BD80B584B000AF78607B68002B6B
:1047100001D101238DE07B681B681A46474B9A4202
:104720000FD87B681B681A46454B1344454AA2FBC9
:1047300003231B099A007B685A647B68424A1A6407
:104740000EE07B681B681A46404B13443D4AA2FBAF
:1047500003231B099A007B685A647B683C4A1A64ED
:104760007B68022283F825207B681B681B68FB603E
:10477000FB6823F4FF4323F07003FB607B689A68B7
:104780007B68DB681A437B681B691A437B685B693B
:104790001A437B689B691A437B68DB691A437B6811
:1047A0001B6A1343FA681343FB607B681B68FA6853
:1047B0001A60786800F076FA7B689B68B3F5804FE2
:1047C00002D17B6800225A607B685A687B689B6CC8
:1047D000D2B21A607B68DB6C7A68126D5A607B68B3
:1047E0005B68002B10D07B685B68042B0CD8786862
:1047F00000F096FA7B685B6D00221A607B689B6D07
:104800007A68D26D5A6008E07B6800225A657B683E
:1048100000229A657B680022DA657B680022DA63F1
:104820007B68012283F825207B68002283F82420FE
:10483000002318461037BD4680BD00BF0704024064
:10484000F8FFFDBFCDCCCCCC00000240F8FBFDBF93
:104850000004024080B586B000AFF860B9607A60AD
:104860003B600023FB75FB6893F82430012B01D1DA
:10487000022366E0FB68012283F82420FB6893F89A
:104880002530DBB2012B55D1FB68022283F82520AD
:10489000FB680022DA63FB681B681A68FB681B6808
:1048A00022F001021A603B687A68B968F86800F083
:1048B000BBF9FB681B6B002B08D0FB681B681A68F0
:1048C000FB681B6842F00E021A600FE0FB681B6871
:1048D0001A68FB681B6822F004021A60FB681B68F8
:1048E0001A68FB681B6842F00A021A60FB689B6C3E
:1048F0001B6803F48033002B07D0FB689B6C1A689D
:10490000FB689B6C42F480721A60FB685B6D002B45
:1049100007D0FB685B6D1A68FB685B6D42F48072C0
:104920001A60FB681B681A68FB681B6842F001028A
:104930001A6005E0FB68002283F824200223FB753F
:10494000FB7D18461837BD4680BD80B485B000AFEA
:1049500078600023FB737B6893F82530DBB2022B71
:1049600005D07B680422DA630123FB7337E07B68A0
:104970001B681A687B681B6822F00E021A607B684D
:104980009B6C1A687B689B6C22F480721A607B684F
:104990001B681A687B681B6822F001021A607B683A
:1049A0005B6C03F01F027B681B6C012101FA02F2B1
:1049B0005A607B68DB6C7A68126D5A607B685B6D4D
:1049C000002B0CD07B685B6D1A687B685B6D22F4F2
:1049D00080721A607B689B6D7A68D26D5A607B68C2
:1049E000012283F825207B68002283F82420FB7BAA
:1049F00018461437BD465DF8047B704780B584B017
:104A000000AF78600023FB737B6893F82530DBB23E
:104A1000022B0DD07B680422DA637B68012283F8C5
:104A200025207B68002283F824200123FB7347E0C4
:104A30007B681B681A687B681B6822F00E021A608C
:104A40007B681B681A687B681B6822F001021A6089
:104A50007B689B6C1A687B689B6C22F480721A607E
:104A60007B685B6C03F01F027B681B6C012101FA01
:104A700002F25A607B68DB6C7A68126D5A607B6860
:104A80005B6D002B0CD07B685B6D1A687B685B6D7F
:104A900022F480721A607B689B6D7A68D26D5A60CE
:104AA0007B68012283F825207B68002283F824207C
:104AB0007B689B6B002B03D07B689B6B7868984767
:104AC000FB7B18461037BD4680BD80B584B000AF73
:104AD00078607B681B6C1B68FB607B681B681B68CD
:104AE000BB607B685B6C03F01F0304229A40FB6889
:104AF0001340002B26D0BB6803F00403002B21D009
:104B00007B681B681B6803F02003002B07D17B68C0
:104B10001B681A687B681B6822F004021A607B68B5
:104B20005B6C03F01F027B681B6C042101FA02F22C
:104B30005A607B681B6B002B71D07B681B6B78689D
:104B400098476CE07B685B6C03F01F0302229A407D
:104B5000FB681340002B2ED0BB6803F00203002B30
:104B600029D07B681B681B6803F02003002B0BD146
:104B70007B681B681A687B681B6822F00A021A604F
:104B80007B68012283F825207B685B6C03F01F02A1
:104B90007B681B6C022101FA02F25A607B680022DA
:104BA00083F824207B68DB6A002B38D07B68DB6AC3
:104BB0007868984733E07B685B6C03F01F0308223A
:104BC0009A40FB681340002B2AD0BB6803F008030F
:104BD000002B25D07B681B681A687B681B6822F055
:104BE0000E021A607B685B6C03F01F027B681B6C13
:104BF000012101FA02F25A607B680122DA637B68C4
:104C0000012283F825207B68002283F824207B681A
:104C10005B6B002B04D07B685B6B7868984700BFA8
:104C200000BF1037BD4680BD80B485B000AFF860CE
:104C3000B9607A603B60FB68DB6CFA68126D5A60A1
:104C4000FB685B6D002B04D0FB689B6DFA68D26D2E
:104C50005A60FB685B6C03F01F02FB681B6C012150
:104C600001FA02F25A60FB681B683A685A60FB68F6
:104C70009B68102B08D1FB681B687A689A60FB68F8
:104C80001B68BA68DA6007E0FB681B68BA689A605C
:104C9000FB681B687A68DA6000BF1437BD465DF8B0
:104CA000047B704780B487B000AF78607B681B6876
:104CB0001A46164B9A4202D8154B7B6101E0154B00
:104CC0007B617B693B617B681B68DBB2083B124AF6
:104CD000A2FB03231B09FB607B685B6C9B089A00AB
:104CE0003B6913441A467B689A647B680B4ADA6412
:104CF000FB6803F01F0301229A407B681A6500BF1E
:104D00001C37BD465DF8047B704700BF07040240B6
:104D10000008024020080240CDCCCCCC80080240E4
:104D200080B485B000AF78607B685B68DBB2FB6005
:104D3000FA680B4B13449B001A467B685A657B68E4
:104D4000084A9A65FB68013B03F01F0301229A4061
:104D50007B68DA6500BF1437BD465DF8047B704799
:104D60003F8200104009024080B586B000AFF86075
:104D7000B960C7E9002300233B612F4B1B78012B4F
:104D800001D1022353E02C4B01221A704FF47A70A8
:104D900000F092F80346FB75FB7D002B43D1264BB8
:104DA00000225A60254B1B6803F48063002B09D056
:104DB000224B1B68214A23F4806313601E4B02229E
:104DC0001A7702E01C4B00221A77FB68002B07D1F0
:104DD000D7E90023B86800F0C1F801233B6110E077
:104DE000FB68012B02D0FB68022B0AD13B681946F5
:104DF000B86800F0D9F8FB68022B02D14FF4802389
:104E00003B614FF47A7000F057F80346FB753B693D
:104E1000002B06D0094B5A693B69DB430749134015
:104E20004B6100F0D1F9044B00221A70FB7D18464B
:104E30001837BD4680BD00BF300000200020024072
:104E400080B483B000AF0023FB710B4B5B69002B78
:104E50000BDA094B094A9A60074B094A9A60064BDC
:104E60005B69002B01DA0123FB71FB7918460C37D3
:104E7000BD465DF8047B7047002002402301674572
:104E8000AB89EFCD80B483B000AF0123FB71094B38
:104E90005B69084A43F000435361064B5B69002B92
:104EA00001DA0023FB71FB7918460C37BD465DF82B
:104EB000047B70470020024080B584B000AF78606A
:104EC000FFF712FBF86009E0FFF70EFB0246FB68F4
:104ED000D31A7A689A4201D2032337E01D4B1B692B
:104EE00003F48033B3F5803FEED01A4B1A694CF2CD
:104EF000FA331340BB60BB68002B1DD0164B5A68B9
:104F0000BB681343144A5360BB68B3F1804F07D3A7
:104F1000104B9A69BB6803F040430E4913438B6101
:104F2000BB6823F04043002B04D00A4ABB6823F03F
:104F300040431361012309E0064B1B6903F00103A1
:104F4000012B02D1034B01221A61002318461037AE
:104F5000BD4680BD002002403000002080B485B0F6
:104F600000AFF860C7E900230E4B5B690D4A43F0C0
:104F700001035361FB683A681A60BFF36F8F00BF8B
:104F8000D7E900014FF000024FF000030A000023B0
:104F9000F968043113460B6000BF1437BD465DF855
:104FA000047B70470020024080B489B000AF786075
:104FB00039604023FB777B68BB613B687B61144BA6
:104FC0005B69134A43F480235361EFF31083FB6062
:104FD000FB683B6172B600BF7B691A68BB691A60E7
:104FE000BB690433BB617B6904337B61FB7F013B9D
:104FF000FB77FB7F002BEFD13B69BB60BB6883F382
:10500000108800BF00BF2437BD465DF8047B7047A1
:105010000020024080B584B000AF78603960474B13
:105020001B78012B01D1022383E0444B01221A702B
:105030004FF47A70FFF740FF0346FB73FB7B002BB6
:1050400073D13E4B00225A603D4B1B6803F4007342
:10505000002B13D03A4B1B6803F48063002B09D05C
:10506000374B1B68364A23F480631360334B0322AB
:105070001A7716E0314B01221A7712E0304B1B6889
:1050800003F48063002B09D02D4B1B682C4A23F4BA
:1050900080631360294B02221A7702E0274B00221B
:1050A0001A777B681B68012B11D17B685B681846F7
:1050B00000F048F84FF47A70FFF7FEFE0346FB73EA
:1050C0001F4B5B691E4A23F0040353612BE03B68CE
:1050D0004FF0FF321A607B689B68BB601BE07B6807
:1050E0005B681946B86800F04BF84FF47A70FFF728
:1050F000E3FE0346FB73124B5B69114A23F4FD7315
:105100005361FB7B002B03D03B68BA681A600AE04E
:10511000BB680133BB607B689A687B68DB681344BB
:10512000BA689A42DBD300F04FF8044B00221A70A1
:10513000FB7B18461037BD4680BD00BF3000002005
:105140000020024080B483B000AF78607B6803F039
:105150000103002B05D0094B5B69084A43F00403A7
:105160005361064B5B69054A43F48033536100BFCA
:105170000C37BD465DF8047B704700BF002002403D
:1051800080B483B000AF786039600E4B5B6923F464
:10519000FC727B68DB0003F4FF630A4913434B6135
:1051A000084B5B69074A43F002035361054B5B6997
:1051B000044A43F48033536100BF0C37BD465DF8A9
:1051C000047B70470020024080B483B000AF214BC5
:1051D0001B7FFB71FB79012B02D0FB79032B17D1CD
:1051E0001D4B1B681C4A23F4007313601A4B1B6889
:1051F000194A43F400631360174B1B68164A23F4E3
:1052000000631360144B1B68134A43F4007313606C
:10521000FB79022B02D0FB79032B11D10E4B1B68BB
:105220000D4A43F4805313600B4B1B680A4A23F466
:1052300080531360084B1B68074A43F48063136074
:10524000044B00221A7700BF0C37BD465DF8047B83
:10525000704700BF300000200020024080B487B0BB
:1052600000AF7860396000237B615AE13B681A68BF
:1052700001217B6901FA03F31340FB60FB68002BFB
:1052800000F04C813B685B6803F00303012B05D001
:105290003B685B6803F00303022B30D17B689B689B
:1052A0003B617B695B00032202FA03F3DB433A694B
:1052B00013403B613B68DA687B695B0002FA03F3E9
:1052C0003A6913433B617B683A699A607B685B6823
:1052D0003B6101227B6902FA03F3DB433A69134025
:1052E0003B613B685B681B0903F001027B6902FAC2
:1052F00003F33A6913433B617B683A695A603B6840
:105300005B6803F00303032B17D07B68DB683B610A
:105310007B695B00032202FA03F3DB433A69134023
:105320003B613B689A687B695B0002FA03F33A6968
:1053300013433B617B683A69DA603B685B6803F062
:105340000303022B23D17B69DA087B68083253F808
:1053500022303B617B6903F007039B000F2202FAB6
:1053600003F3DB433A6913403B613B681A697B698D
:1053700003F007039B0002FA03F33A6913433B610E
:105380007B69DA087B680832396943F822107B6848
:105390001B683B617B695B00032202FA03F3DB437A
:1053A0003A6913403B613B685B6803F003027B6929
:1053B0005B0002FA03F33A6913433B617B683A6985
:1053C0001A603B685B6803F44033002B00F0A68052
:1053D0005B4B1B6E5A4A43F001031366584B1B6E1E
:1053E00003F00103BB60BB68564A7B699B0802332C
:1053F00052F823303B617B6903F003039B000F22CB
:1054000002FA03F3DB433A6913403B617B68B3F173
:10541000904F1FD07B684C4A934219D07B684B4A0F
:10542000934213D07B684A4A93420DD07B68494A25
:10543000934207D07B68484A934201D105230AE092
:10544000062308E0042306E0032304E0022302E02D
:10545000012300E000237A6902F0030292009340E6
:105460003A6913433B6137497B699B0802333A69C8
:1054700041F82320394B9B683B61FB68DB433A6969
:1054800013403B613B685B6803F48013002B03D03F
:105490003A69FB6813433B61304A3B6993602F4B89
:1054A000DB683B61FB68DB433A6913403B613B6867
:1054B0005B6803F40013002B03D03A69FB681343C5
:1054C0003B61264A3B69D360244B5B683B61FB68C8
:1054D000DB433A6913403B613B685B6803F400338C
:1054E000002B03D03A69FB6813433B611B4A3B69BD
:1054F00053601A4B1B683B61FB68DB433A691340FE
:105500003B613B685B6803F48033002B03D03A694E
:10551000FB6813433B61114A3B6913607B690133AC
:105520007B613B681A687B6922FA03F3002B7FF4E6
:105530009DAE00BF00BF1C37BD465DF8047B7047C1
:10554000001002400000014000040048000800482C
:10555000000C0048001000480014004800040140FE
:1055600080B483B000AF78600B467B8013467B70BD
:105570007B78002B03D07A887B689A6102E07A8876
:105580007B689A6200BF0C37BD465DF8047B7047AC
:1055900080B485B000AF78600B467B807B685B6928
:1055A000FB607A88FB6813401A04FB68D9437B8848
:1055B0000B401A437B689A6100BF1437BD465DF803
:1055C000047B704780B582B000AF78607B68002BA9
:1055D00001D101238DE07B6893F84130DBB2002BD1
:1055E00006D17B68002283F840207868FDF762FCD2
:1055F0007B68242283F841207B681B681A687B68DB
:105600001B6822F001021A607B685A687B681B687D
:1056100022F070621A617B681B689A687B681B685D
:1056200022F400429A607B68DB68012B07D17B681B
:105630009A687B681B6842F400429A6006E07B68C7
:105640009A687B681B6842F404429A607B68DB6856
:10565000022B08D17B681B685A687B681B6842F480
:1056600000625A6007E07B681B685A687B681B68A9
:1056700022F400625A607B681B685B687A68126873
:1056800043F0007343F4004353607B681B68DA689F
:105690007B681B6822F40042DA607B681A697B68C9
:1056A0005B6942EA03017B689B691A027B681B689D
:1056B0000A43DA607B68D9697B681A6A7B681B6871
:1056C0000A431A607B681B681A687B681B6842F093
:1056D00001021A607B6800225A647B68202283F8EA
:1056E00041207B6800221A637B68002283F84220F5
:1056F000002318460837BD4680BD000080B588B03D
:1057000002AFF860084611461A4603467B810B46F5
:105710003B811346FB80FB6893F84130DBB2202BC2
:1057200040F0F9803B6A002B02D0BB8C002B05D1E6
:10573000FB684FF400725A640123EDE0FB6893F8B4
:105740004030012B01D10223E6E0FB68012283F8FF
:105750004020FEF7C9FE78617B690093192301227E
:105760004FF40041F86800F0C3FA0346002B01D063
:105770000123D1E0FB68212283F84120FB6840220D
:1057800083F84220FB6800225A64FB683A6A5A6236
:10579000FB68BA8C5A85FB6800225A63F8883A89FC
:1057A00079897B690193BB6A00930346F86800F02E
:1057B000D3F90346002B05D0FB68002283F8402074
:1057C0000123A9E0FB685B8D9BB2FF2B0ED9FB6820
:1057D000FF221A85FB681B8DDAB2798900230093BA
:1057E0004FF08073F86800F047FC0FE0FB685B8DBA
:1057F0009AB2FB681A85FB681B8DDAB2798900239F
:1058000000934FF00073F86800F036FC7A69B96ACB
:10581000F86800F0C6FA0346002B01D001237BE0B4
:10582000FB685B6A1A78FB681B689A62FB685B6AB4
:105830005A1CFB685A62FB685B8D9BB2013B9AB2B3
:10584000FB685A85FB681B8D013B9AB2FB681A8581
:10585000FB685B8D9BB2002B34D0FB681B8D002B4B
:1058600030D17B690093BB6A00228021F86800F088
:105870003FFA0346002B01D001234DE0FB685B8D0E
:105880009BB2FF2B0ED9FB68FF221A85FB681B8D8C
:10589000DAB27989002300934FF08073F86800F042
:1058A000EBFB0FE0FB685B8D9AB2FB681A85FB6827
:1058B0001B8DDAB27989002300934FF00073F868EA
:1058C00000F0DAFBFB685B8D9BB2002B9ED17A69FE
:1058D000B96AF86800F0ACFA0346002B01D0012346
:1058E0001AE0FB681B682022DA61FB681B685968B4
:1058F000FB681A680A4B0B405360FB68202283F850
:105900004120FB68002283F84220FB68002283F8D4
:105910004020002300E0022318461837BD4680BD12
:1059200000E800FE80B588B002AFF8600846114676
:105930001A4603467B810B463B811346FB80FB687E
:1059400093F84130DBB2202B40F0FD803B6A002B06
:1059500002D0BB8C002B05D1FB684FF400725A6457
:105960000123F1E0FB6893F84030012B01D10223C1
:10597000EAE0FB68012283F84020FEF7B5FD78617C
:105980007B690093192301224FF40041F86800F06D
:10599000AFF90346002B01D00123D5E0FB6822229A
:1059A00083F84120FB68402283F84220FB680022F4
:1059B0005A64FB683A6A5A62FB68BA8C5A85FB687B
:1059C00000225A63F8883A8979897B690193BB6A16
:1059D00000930346F86800F013F90346002B05D046
:1059E000FB68002283F840200123ADE0FB685B8D5B
:1059F0009BB2FF2B0ED9FB68FF221A85FB681B8D1B
:105A0000DAB27989524B00934FF08073F86800F056
:105A100033FB0FE0FB685B8D9AB2FB681A85FB686D
:105A20001B8DDAB279894A4B00934FF00073F86806
:105A300000F022FB7B690093BB6A00220421F86816
:105A400000F056F90346002B01D001237CE0FB68EF
:105A50001B685A6AFB685B6AD2B21A70FB685B6AA1
:105A60005A1CFB685A62FB681B8D013B9AB2FB68AB
:105A70001A85FB685B8D9BB2013B9AB2FB685A8525
:105A8000FB685B8D9BB2002B34D0FB681B8D002B19
:105A900030D17B690093BB6A00228021F86800F056
:105AA00027F90346002B01D001234DE0FB685B8DF5
:105AB0009BB2FF2B0ED9FB68FF221A85FB681B8D5A
:105AC000DAB27989002300934FF08073F86800F010
:105AD000D3FA0FE0FB685B8D9AB2FB681A85FB680E
