:020000040800F2
:1000000000800020F14500087136000879360008AC
:10001000813600088936000891360008000000008B
:1000200000000000000000000000000081A20008A5
:100030009936000800000000D1A4000839A5000886
:100040004146000841460008414600084146000874
:100050004146000841460008414600084146000864
:10006000414600084146000841460008A9360008FC
:10007000BD360008414600084146000841460008D8
:1000800041460008000000004146000841460008C3
:100090004146000841460008414600084146000824
:1000A00041460008D1360008414600084146000894
:1000B0004146000841460008414600084146000804
:1000C00041460008414600084146000841460008F4
:1000D00041460008E5360008414600084146000850
:1000E00041460008414600084146000841460008D4
:1000F0004146000841460008414600080000000053
:1001000000000000414600080000000041460008D1
:100110004146000800000000414600084146000832
:100120004146000841460008414600084146000893
:1001300041460008000000000000000041460008A1
:100140004146000841460008000000000000000091
:10015000000000000000000000000000000000009F
:100160000000000000000000000000004146000800
:1001700041460008000000000000000000000000F0
:1001800000000000414600080000000000000000E0
:10019000000000000000000000000000000000005F
:1001A0000000000000000000414600084146000831
:1001B0004146000841460008414600080000000092
:1001C00000000000414600080000000000000000A0
:0801D000414600084146000809
:1001E00010B5054C237833B9044B13B10448AFF371
:1001F00000800123237010BD980000200000000043
:1002000064B5000808B5034B1BB103490348AFF3BD
:10021000008008BD000000009C00002064B50008BC
:1002200081F0004102E000BF83F0004330B54FEAA7
:1002300041044FEA430594EA050F08BF90EA020F14
:100240001FBF54EA000C55EA020C7FEA645C7FEAA7
:10025000655C00F0E2804FEA5454D4EB5555B8BFCA
:100260006D420CDD2C4480EA020281EA030382EA3B
:10027000000083EA010180EA020281EA0303362DCD
:1002800088BF30BD11F0004F4FEA01314FF4801CA0
:100290004CEA113102D0404261EB410113F0004FB2
:1002A0004FEA03334CEA133302D0524263EB430369
:1002B00094EA050F00F0A780A4F10104D5F1200E07
:1002C0000DDB02FA0EFC22FA05F2801841F1000162
:1002D00003FA0EF2801843FA05F359410EE0A5F136
:1002E00020050EF1200E012A03FA0EFC28BF4CF067
:1002F000020C43FA05F3C01851EBE37101F000451D
:1003000007D54FF0000EDCF1000C7EEB00006EEB29
:100310000101B1F5801F1BD3B1F5001F0CD34908B3
:100320005FEA30004FEA3C0C04F101044FEA44520A
:1003300012F5800F80F09A80BCF1004F08BF5FEA91
:10034000500C50F1000041EB045141EA050130BD71
:100350005FEA4C0C404141EB0101013C28BFB1F583
:10036000801FE9D291F0000F04BF01460020B1FACE
:1003700081F308BF2033A3F10B03B3F120020CDAA1
:100380000C3208DD02F1140CC2F10C0201FA0CF07F
:1003900021FA02F10CE002F11402D8BFC2F1200CE4
:1003A00001FA02F120FA0CFCDCBF41EA0C0190409A
:1003B000E41AA2BF01EB0451294330BD6FEA0404E3
:1003C0001F3C1CDA0C340EDC04F11404C4F12002CE
:1003D00020FA04F001FA02F340EA030021FA04F3E0
:1003E00045EA030130BDC4F10C04C4F1200220FA37
:1003F00002F001FA04F340EA0300294630BD21FA75
:1004000004F0294630BD94F0000F83F4801306BF3A
:1004100081F480110134013D4EE77FEA645C18BF2E
:100420007FEA655C29D094EA050F08BF90EA020FC5
:1004300005D054EA000C04BF1946104630BD91EABD
:10044000030F1EBF0021002030BD5FEA545C05D1C0
:100450004000494128BF41F0004130BD14F58004FF
:100460003CBF01F5801130BD01F0004545F0FE4173
:1004700041F470014FF0000030BD7FEA645C1ABFA8
:10048000194610467FEA655C1CBF0B46024650EADF
:10049000013406BF52EA033591EA030F41F400210B
:1004A00030BD00BF90F0000F04BF0021704730B591
:1004B0004FF4806404F132044FF000054FF0000166
:1004C00050E700BF90F0000F04BF0021704730B527
:1004D0004FF4806404F1320410F0004548BF4042FC
:1004E0004FF000013EE700BF42004FEAE2014FEA51
:1004F00031014FEA02701FBF12F07F4393F07F4F2C
:1005000081F06051704732F07F4208BF704793F02E
:100510007F4F04BF41F40021704730B54FF4607441
:1005200001F0004521F000411CE700BF50EA010244
:1005300008BF704730B54FF000050AE050EA0102ED
:1005400008BF704730B511F0004502D5404261EB5D
:1005500041014FF4806404F132045FEA915C3FF49E
:10056000D8AE4FF003025FEADC0C18BF03325FEA3B
:10057000DC0C18BF033202EBDC02C2F1200300FAEC
:1005800003FC20FA02F001FA03FE40EA0E0021FA11
:1005900002F11444BDE600BF70B54FF0FF0C4CF4FF
:1005A000E06C1CEA11541DBF1CEA135594EA0C0FB1
:1005B00095EA0C0F00F0DEF82C4481EA030621EAEC
:1005C0004C5123EA4C5350EA013518BF52EA033527
:1005D00041F4801143F4801338D0A0FB02CE4FF0D9
:1005E0000005E1FB02E506F00042E0FB03E54FF009
:1005F0000006E1FB03569CF0000F18BF4EF0010E01
:10060000A4F1FF04B6F5007F64F5407404D25FEAFC
:100610004E0E6D4146EB060642EAC62141EA5551AF
:100620004FEAC52040EA5E504FEACE2EB4F1FD0CF1
:1006300088BFBCF5E06F1ED8BEF1004F08BF5FEA6F
:10064000500E50F1000041EB045170BD06F0004621
:1006500046EA010140EA020081EA0301B4EB5C04CE
:10066000C2BFD4EB0C0541EA045170BD41F48011C6
:100670004FF0000E013C00F3AB8014F1360FDEBFEB
:10068000002001F0004170BDC4F10004203C35DAC7
:100690000C341BDC04F11404C4F1200500FA05F34A
:1006A00020FA04F001FA05F240EA020001F00042EB
:1006B00021F0004110EBD37021FA04F642EB060161
:1006C0005EEA430E08BF20EAD37070BDC4F10C048B
:1006D000C4F1200500FA04F320FA05F001FA04F24F
:1006E00040EA020001F0004110EBD37041F100013B
:1006F0005EEA430E08BF20EAD37070BDC4F1200546
:1007000000FA05F24EEA020E20FA04F301FA05F2AD
:1007100043EA020321FA04F001F0004121FA04F255
:1007200020EA020000EBD3705EEA430E08BF20EA25
:10073000D37070BD94F0000F0FD101F0004640005F
:1007400041EB010111F4801F08BF013CF7D041EAE1
:10075000060195F0000F18BF704703F000465200E5
:1007600043EB030313F4801F08BF013DF7D043EAB6
:100770000603704794EA0C0F0CEA135518BF95EA6C
:100780000C0F0CD050EA410618BF52EA4306D1D1F3
:1007900081EA030101F000414FF0000070BD50EA12
:1007A000410606BF1046194652EA430619D094EA9C
:1007B0000C0F02D150EA013613D195EA0C0F05D186
:1007C00052EA03361CBF104619460AD181EA0301DA
:1007D00001F0004141F0FE4141F470014FF0000092
:1007E00070BD41F0FE4141F4780170BD70B54FF02D
:1007F000FF0C4CF4E06C1CEA11541DBF1CEA1355AD
:1008000094EA0C0F95EA0C0F00F0A7F8A4EB05048E
:1008100081EA030E52EA03354FEA013100F0888085
:100820004FEA03334FF0805545EA131343EA12634E
:100830004FEA022245EA111545EA10654FEA002603
:100840000EF000419D4208BF964244F1FD0404F5BC
:10085000407402D25B084FEA3202B61A65EB030518
:100860005B084FEA32024FF480104FF4002CB6EBD5
:10087000020E75EB030E22BFB61A754640EA0C0055
:100880005B084FEA3202B6EB020E75EB030E22BF95
:10089000B61A754640EA5C005B084FEA3202B6EBD6
:1008A000020E75EB030E22BFB61A754640EA9C0095
:1008B0005B084FEA3202B6EB020E75EB030E22BF65
:1008C000B61A754640EADC0055EA060E18D04FEA23
:1008D000051545EA16754FEA06164FEAC30343EAC3
:1008E00052734FEAC2025FEA1C1CC0D111F4801F90
:1008F0000BD141EA00014FF000004FF0004CB6E789
:1009000011F4801F04BF01430020B4F1FD0C88BF27
:10091000BCF5E06F3FF6AFAEB5EB030C04BFB6EB32
:10092000020C5FEA500C50F1000041EB045170BD25
:100930000EF0004E4EEA113114EB5C04C2BFD4EB52
:100940000C0541EA045170BD41F480114FF0000ED6
:10095000013C90E645EA060E8DE60CEA135594EA52
:100960000C0F08BF95EA0C0F3FF43BAF94EA0C0F55
:100970000AD150EA01347FF434AF95EA0C0F7FF4CA
:1009800025AF104619462CE795EA0C0F06D152EA1E
:1009900003353FF4FDAE1046194622E750EA410602
:1009A00018BF52EA43067FF4C5AE50EA41047FF413
:1009B0000DAF52EA43057FF4EBAE12E74FF0FF3C78
:1009C00006E000BF4FF0010C02E000BF4FF0010C49
:1009D0004DF804CD4FEA410C7FEA6C5C4FEA430CC2
:1009E00018BF7FEA6C5C1BD001B050EA410C0CBF11
:1009F00052EA430C91EA030F02BF90EA020F002073
:100A0000704710F1000F91EA030F58BF994208BFD9
:100A100090422CBFD8176FEAE37040F00100704796
:100A20004FEA410C7FEA6C5C02D150EA013C07D1ED
:100A30004FEA430C7FEA6C5CD6D152EA033CD3D038
:100A40005DF8040B704700BF8446104662468C4632
:100A50001946634600E000BF01B5FFF7B7FF002865
:100A600048BF10F1000F01BD4DF808EDFFF7F4FF8E
:100A70000CBF012000205DF808FB00BF4DF808ED19
:100A8000FFF7EAFF34BF012000205DF808FB00BF3C
:100A90004DF808EDFFF7E0FF94BF012000205DF85E
:100AA00008FB00BF4DF808EDFFF7CEFF94BF012013
:100AB00000205DF808FB00BF4DF808EDFFF7C4FF0C
:100AC00034BF012000205DF808FB00BF4FEA410C55
:100AD0007FEA6C5C02D150EA013C0AD14FEA430C38
:100AE0007FEA6C5C02D152EA033C02D14FF0000075
:100AF00070474FF0010070474FEA4102B2F1E04306
:100B000024BFB3F5001CDCF1FE5C0DD901F0004CF4
:100B10004FEAC0024CEA5070B2F1004F40EB830044
:100B200008BF20F00100704711F0804F21D113F170
:100B30003872BCBF01F00040704741F480114FEAA9
:100B40005252C2F11802C2F1200C10FA0CF320FA32
:100B500002F018BF40F001004FEAC1234FEAD3234F
:100B600003FA0CFC40EA0C0023FA02F34FEA4303B9
:100B7000CCE77FEA625307D150EA01331EBF4FF042
:100B8000FE4040F44000704701F0004040F0FE405D
:100B900040F40000704700BF53B94AB9002908BFAC
:100BA00000281CBF4FF0FF314FF0FF3000F088B934
:100BB000ADF1080C6DE904CE00F006F8DDF804E0B4
:100BC000DDE9022304B070472DE9F047089D8E4609
:100BD00004468846002B4AD18A42174662D9B2FAA7
:100BE00082F64EB1C6F1200301FA06F820FA03F3AB
:100BF000B74043EA0808B4404FEA174E1FFA87FC93
:100C0000B8FBFEF1230C0EFB118843EA084301FBFD
:100C10000CF29A4209D9FB1801F1FF3080F0EA800A
:100C20009A4240F2E78002393B449A1AA3B2B2FBDF
:100C3000FEF00EFB102243EA024300FB0CFC9C4535
:100C400009D9FB1800F1FF3280F0D6809C4540F2B4
:100C5000D3803B44023840EA0140A3EB0C0300215F
:100C60001DB1F3400022C5E90032BDE8F0878B4298
:100C700005D90DB1C5E9000100210846F5E7B3FA31
:100C800083F1002946D1734502D3824200F20581E7
:100C9000841A6EEB030201209046002DE5D0C5E9D1
:100CA0000048E2E7002A00F09080B2FA82F6002EB7
:100CB00040F0A4808A1A030C4FEA174E80B2BCB2EF
:100CC0000121B2FBFEFC0EFB1C2243EA024304FBA3
:100CD0000CF29A4207D9FB180CF1FF3802D29A4263
:100CE00000F2E080C4469B1AB3FBFEF20EFB123307
:100CF00040EA034302FB04F49C4207D9FB1802F1CB
:100D0000FF3002D29C4200F2CA8002461B1B42EA1C
:100D10000C40A5E7C1F120068B4022FA06F71F43DD
:100D20000EFA01F420FA06F32EFA06FE4FEA1749EE
:100D3000234300FA01F81FFA87FCBEFBF9F01C0CF4
:100D400009FB10EE44EA0E4400FB0CFEA64502FA35
:100D500001F209D93C1900F1FF3A80F09C80A645C8
:100D600040F2998002383C44A4EB0E041FFA83FE43
:100D7000B4FBF9F309FB13444EEA044403FB0CFCF7
:100D8000A44508D93C1903F1FF3E80F08280A445B8
:100D90007FD9023B3C4443EA0040A4EB0C04A0FB97
:100DA00002EC64457346E14662D35FD05DB1B8EBB7
:100DB000030264EB090404FA06F622FA01F31E4367
:100DC000CC40C5E9006400214FE7B1FBF2FC010C07
:100DD00041EA0E4180B240EA01423B4638463C4679
:100DE000B846BE462026B1FBF7F1A2EB080241EA65
:100DF0000C4166E7014618E710462CE7C6F12002D1
:100E00002EFA02F3B740B14020FA02F24FEA174E31
:100E10000A43B3FBFEF8BCB20EFB1833110C41EAD7
:100E2000034108FB04F9B04089454FEA104380B202
:100E30003ED9791808F1FF3C01D289451FD8A1EBB2
:100E40000901B1FBFEF909FB04F80EFB191192B27E
:100E500042EA0142424529D2BA1809F1FF31C4D20F
:100E60004245C2D2A9F102013A44BEE7F0459DD203
:100E7000BEEB02036CEB070C0138E14696E7A7EBEB
:100E800009094944A8F1020CB1FBFEF909FB04F879
:100E9000DBE773467FE7504666E70846FDE63B44DE
:100EA000023A33E7ACF1020C3B441CE749469CE7AD
:100EB000A1EB0901C446B1FBFEF909FB04F8C4E744
:100EC000704700BF80B584B000AF7860786800F0EC
:100ED000D9FD0346FB7397F90F30002B37D17B68A0
:100EE00000221A707B6893F83730002B08D107F185
:100EF0000E017B680122012000F02FF80346FB73EE
:100F000097F90F30002B22D107F10D017B680122E8
:100F1000012000F022F80346FB7397F90F30002BF5
:100F200015D17B7B002B05D0786800F0E7FD0346E8
:100F3000FB7301E0FC23FB7397F90F30002B06D104
:100F40007B7B7968184600F0BDFD0346FB7397F97B
:100F50000F3018461037BD4680BD90B587B000AF42
:100F6000B9607A603B600346FB73386800F08AFD25
:100F70000346FB7597F91730002B1FD1BB68002B78
:100F80001CD03B6893F83730002B03D1FB7B63F018
:100F90007F03FB733B68DC69F87B3B687A68B96860
:100FA000A04703461A463B6883F828203B6893F91C
:100FB0002830002B04D0FE23FB7501E0FF23FB75D6
:100FC00097F9173018461C37BD4690BD90B587B0CD
:100FD00000AFB9607A603B600346FB730023BB75CA
:100FE000386800F04FFD0346FB7597F91730002B6A
:100FF00044D1BB68002B41D03B6893F83730002BBD
:101000001ED13B681C6AFA7BBB7D1344D8B2BB7D02
:10101000BA68D1183B685B680122A04703461A46AC
:101020003B6883F82820BB7D0133BB75BB7D7A68A4
:101030009A421BD93B6893F92830002BE1D015E088
:101040003B6893F83730012B04D03B6893F8373076
:10105000022B0BD13B681C6AF87B3B687A68B96845
:10106000A04703461A463B6883F828203B6893F95B
:101070002830002B04D0FE23FB7501E0FF23FB7515
:1010800097F9173018461C37BD4690BD80B584B01F
:1010900000AF7860B6233B7307F10C017B68012237
:1010A0007E20FFF793FF0346FB7397F90F30002B69
:1010B0002FD17B685B6A7A68526811464FF4FA60F8
:1010C00098477B6893F83730002B08D107F10E0161
:1010D0007B6801220120FFF740FF0346FB7397F96D
:1010E0000F30002B15D107F10D037968184600F079
:1010F00016F80346FB7397F90F30002B09D17B7B61
:1011000003F01003002B02D00023FB7301E0FA234D
:10111000FB7397F90F3018461037BD4680BD80B578
:1011200084B000AF786039607B68002B08D03B68E2
:10113000012279682720FFF710FF0346FB7301E0C7
:10114000FF23FB7397F90F3018461037BD4680BD5B
:1011500080B584B000AF786039607B68002B3FD0E9
:1011600007F10C013B6801223720FFF7F6FE03462A
:10117000FB7397F90F30002B34D13B7B03F0030353
:10118000BB73BB7B032B28D801A252F823F000BF0E
:10119000A1110008C3110008CB110008D3110008E9
:1011A0003B7BDB097B737B7B002B06D1396878683E
:1011B00000F0F5FC0346FB7314E07B6800221A7014
:1011C00010E07B6801221A700CE07B6802221A7022
:1011D00008E07B6803221A7004E0F923FB7301E046
:1011E000FF23FB7397F90F3018461037BD4680BDBB
:1011F00080B584B000AF03463960FB7107F10E0380
:1012000039681846FFF7A4FF0346FB7397F90F30C0
:10121000002B37D1BB7B002B11D03968002000F0A8
:1012200072FD0346FB7397F90F30002B07D13B6823
:101230005B6A3A685268114640F6C410984797F9BD
:101240000F30002B1ED1FB79042B09D0042B15DCA9
:10125000002B16D0002B11DB013B022B0ED805E032
:10126000386800F0E3FC0346FB730BE0FB79396858
:10127000184600F048FD0346FB7303E0F923FB73B7
:1012800000E000BF97F90F3018461037BD4680BD0B
:1012900080B584B000AF786039607B68002B58D08F
:1012A00007F10E013B6801221520FFF756FE0346A9
:1012B000FB7397F90F30002B4DD1BB7B5BB223F052
:1012C00001035AB27B681B785BB203F001035BB287
:1012D00013435BB2DBB2BB73BB7B5BB223F0020395
:1012E0005AB27B685B785BB25B005BB203F00203CF
:1012F0005BB213435BB2DBB2BB73BB7B5BB223F06D
:1013000004035AB27B689B785BB29B005BB203F02C
:1013100004035BB213435BB2DBB2BB73BB7B5BB258
:1013200023F008035AB27B68DB785BB2DB005BB268
:1013300003F008035BB213435BB2DBB2BB7307F18C
:101340000E013B6801221520FFF740FE0346FB73A8
:1013500001E0FF23FB7397F90F3018461037BD46A5
:1013600080BD90B585B000AF0446084611461A46C8
:101370002346FB710346BB710B467B7113463B71E1
:101380000023BB7300237B7300233B7307F10E0123
:101390003B6A01221420FFF7E0FD0346FB7397F937
:1013A0000F30002B60D107F10D013B6A012215209F
:1013B000FFF70CFE0346FB7397F90F30002B53D158
:1013C00007F10C013B6A01222720FFF7C6FD034607
:1013D000FB7397F90F30002B46D1BB7B5BB223F038
:1013E00001035AB297F9073003F001035BB21343CC
:1013F0005BB2DBB2BB73BB7B5BB223F002035AB2BE
:1014000097F906305B005BB203F002035BB2134353
:101410005BB2DBB2BB73BB7B5BB223F004035AB29B
:1014200097F905309B005BB203F004035BB21343F2
:101430005BB2DBB2BB73BB7B5BB223F008035AB277
:1014400097F90430DB005BB203F008035BB213438F
:101450005BB2DBB2BB7307F10E013B6A01221420C1
:10146000FFF7B4FD0346FB7397F90F3018461437A6
:10147000BD4690BD80B584B000AF786039607B68B0
:10148000002B2BD007F10C013B6802223620FFF71E
:1014900064FD0346FB7397F90F30002B20D13B7B93
:1014A00003F00703DAB27B681A703B7BDB10DBB218
:1014B00003F00703DAB27B685A703B7B9B11DBB207
:1014C00003F00103DAB27B689A707B7B9B10DBB27E
:1014D00003F01F03DAB27B68DA7001E0FF23FB73CD
:1014E00097F90F3018461037BD4680BD80B584B0DF
:1014F00000AF786039600023FB730023BB817B68F9
:10150000002B65D07B68DB78172B04D8386800F097
:101510002FFC0346FB7397F90F30002B5AD107F1CC
:101520000C013B6802223620FFF717FD0346FB73D0
:1015300097F90F30002B4DD13B7B5BB223F00703B3
:101540005AB27B681B785BB203F007035BB21343AC
:101550005BB2DBB23B733B7B5BB223F038035AB226
:101560007B685B785BB2DB005BB203F038035BB295
:1015700013435BB2DBB23B733B7B5BB223F04003B4
:101580005AB27B689B785BB29B015BB203F040036D
:101590005BB213435BB2DBB23B737B7B5BB223F08A
:1015A0007C035AB27B68DB785BB29B005BB203F0D2
:1015B0007C035BB213435BB2DBB27B7307F10C01BC
:1015C0003B6802223620FFF701FD0346FB7301E072
:1015D000FF23FB7397F90F3018461037BD4680BDC7
:1015E00080B584B000AF786039607B68002B2FD065
:1015F00007F10C013B6802223020FFF7AEFC0346E6
:10160000FB733B7BDB10DBB203F00103DAB27B68D8
:101610009A703B7B5B11DBB203F00103DAB27B68AB
:10162000DA703B7B9B10DBB203F00103DAB27B681C
:101630001A717B7B03F00703DAB27B681A707B7B3D
:10164000DB10DBB203F00703DAB27B685A7001E00B
:10165000FF23FB7397F90F3018461037BD4680BD46
:1016600080B584B000AF786039600023FB737B687D
:10167000002B41D07B681B78002B03D17B685B7803
:10168000002B04D0386800F073FB0346FB7397F916
:101690000F30002B32D107F10E0339681846FFF7DF
:1016A00057FD0346FB7397F90F30002B26D1BB7B08
:1016B000002B05D039680020FFF79AFD0346FB7325
:1016C00097F90F30002B05D13968786800F06FFB6F
:1016D0000346FB7397F90F30002B0FD1BB7B002B18
:1016E0000CD0BB7B042B09D0BB7B39681846FFF7B5
:1016F0007FFD0346FB7301E0FF23FB7397F90F3077
:1017000018461037BD4680BD80B584B000AF786004
:1017100039600023FB737B68002B57D007F10E0163
:101720003B6801221620FFF718FC0346FB7397F96C
:101730000F30002B28D1BB7B03F01F03DAB27B688C
:101740009A72BB7B5B11DBB203F00103DAB27B68F8
:101750005A7207F10E013B6801221820FFF7FDFBCA
:101760000346FB7397F90F30002B0DD1BB7B03F0C1
:101770000303DAB27B689A71BB7B9B10DBB203F088
:101780000703DAB27B68DA7197F90F30002B1FD1AB
:1017900007F10E013B6801223020FFF7DEFB034614
:1017A000FB7397F90F30002B12D1BB7B1B11DBB2FF
:1017B00003F00103DAB27B68DA72BB7B9B11DBB208
:1017C00003F00103DAB27B681A7301E0FF23FB73B5
:1017D00097F90F3018461037BD4680BD80B584B0EC
:1017E00000AF786039600023FB737B68002B00F04A
:1017F00092807B689B79002B04D0386800F0B8FA9F
:101800000346FB7397F90F30002B40F086807B680E
:10181000DB7ABB737B681B7B7B73797BBB7B3A6812
:10182000184600F02CFB0346FB7397F90F30002B92
:1018300073D107F10C013B6801221620FFF78DFBE5
:101840000346FB7397F90F30002B18D13B7B5BB23B
:1018500023F020035AB27B685B7A5BB25B015BB218
:1018600003F020035BB213435BB2DBB23B7307F1BF
:101870000C037968184600F072FB0346FB7397F976
:101880000F30002B08D107F10C013B680122162014
:10189000FFF79CFB0346FB7397F90F30002B08D131
:1018A00007F10C013B6801221820FFF756FB0346A5
:1018B000FB7397F90F30002B1FD13B7B5BB223F0FA
:1018C00003035AB27B689B795BB203F003035BB2FC
:1018D00013435BB2DBB23B733B7B5BB223F01C0375
:1018E0005AB27B68DB795BB29B005BB203F01C03EE
:1018F0005BB213435BB2DBB23B7397F90F30002B43
:101900000BD107F10C013B6801221820FFF75EFBA9
:101910000346FB7301E0FF23FB7397F90F30184672
:101920001037BD4680BD80B586B000AFF860B960A5
:101930007A60BB68002B34D0FB68002B31D007F1F4
:1019400016017B6801221720FFF707FB0346FB7592
:1019500097F91730002B27D1BB7D03F03F03DAB294
:10196000BB681A72BB689B79012B03D0BB689B795B
:10197000022B08D1BB681B7A1A46520013449AB254
:10198000FB681A8010E0BB689B79032B0CD1BB6805
:101990001B7A1A46520013445B009AB2FB681A8005
:1019A00002E0FF23FB7500E000BF97F917301846EF
:1019B0001837BD4680BD80B584B000AF786039600F
:1019C0007B68002B20D007F10C033A687968184631
:1019D000FFF7A9FF0346FB7397F90F30002B15D1D2
:1019E0007B689A88BB899A4202D9BA897B689A80B7
:1019F0007B6819687B689B881A463B682920FFF73B
:101A0000ACFA0346FB7301E0FF23FB7397F90F3039
:101A100018461037BD4680BD80B584B000AF7860F1
:101A200039600023FB730023BB737B68002B1FD03E
:101A30003B68002B1CD00023BB810EE0BB7BDB008E
:101A40003A68134407F10C017A68184600F0D4FA9A
:101A50000346FB73BB7B0133BB737B689A88BB89EE
:101A60009A4208D997F90F3013F1090FE6D102E035
:101A7000FF23FB7300E000BF97F90F3018461037C3
:101A8000BD4680BD80B485B000AF78607B68002B18
:101A90000BD07B68DB69002B07D07B681B6A002BAF
:101AA00003D07B685B6A002B02D1FF23FB7301E04C
:101AB0000023FB7397F90F3018461437BD465DF8C5
:101AC000047B704780B485B000AF03463960FB717A
:101AD000FB79502B02D0FB79512B05D13B68FA7969
:101AE0001A700023FB7301E0FD23FB7397F90F309D
:101AF00018461437BD465DF8047B704780B584B046
:101B000000AF786007F10E037968184600F0E0FB3B
:101B10000346FB7397F90F30002B3AD1BB7B03F0E0
:101B20000203002B33D0BB7B03F00403002B2ED128
:101B300007F10D0379681846FFF7F1FA0346FB73C6
:101B400097F90F30002B24D17B7B03F01003002B7F
:101B500002D00023FB731CE07868FFF797FA7B68DC
:101B60005B6A012140F6B830984707F10D037968A8
:101B70001846FFF7D4FA0346FB7397F90F30002B92
:101B800002D197F90F3006E0FB23FB7301E0FB2342
:101B9000FB7397F90F3018461037BD4680BD80B5EE
:101BA00086B000AF7860396007F1100300221A6038
:101BB0001A710023FB6007F116013B68012218200F
:101BC000FFF7CBF90346FB75BB7D03F00303DBB2E4
:101BD000BB7597F91730002B13D107F10C03396847
:101BE0001846FFF747FC0346FB7597F91730002BA3
:101BF00007D107F1100339681846FFF7F1FC0346D7
:101C0000FB75FB7B182B0BD9BB7D002B08D13B7CD4
:101C1000002B05D17B7C002B02D17B6804221A703B
:101C200097F9173018461837BD4680BD80B584B087
:101C300000AF786007F10E017B6801223720FFF7C3
:101C40008CF90346FB7397F90F30002B55D1BB7B02
:101C500003F07F03DBB2BB73BB7B5BB223F07C037F
:101C60005BB243F070035BB2DBB2BB7307F10E01F2
:101C70007B6801223720FFF7A9F90346FB7397F928
:101C80000F30002B1AD107F10E017B6801223120A1
:101C9000FFF763F90346FB7397F90F30002B0DD163
:101CA000BB7B23F03F03DBB2BB7307F10E017B6804
:101CB00001223120FFF78AF90346FB7397F90F30B1
:101CC000002B1AD107F10E017B6801221820FFF7C3
:101CD00044F90346FB7397F90F30002B0DD1BB7B02
:101CE00023F00303DBB2BB7307F10E017B68012213
:101CF0001820FFF76BF90346FB7397F90F3018466E
:101D00001037BD4680BD80B584B000AF0346396052
:101D1000FB7107F10E013B6801223720FFF71DF927
:101D20000346FB7397F90F30002B1BD1BB7B63F08D
:101D30007F03DBB2BB73BB7B5BB223F003035AB2FE
:101D400097F9073003F003035BB213435BB2DBB2D6
:101D5000BB7307F10E013B6801223720FFF736F90C
:101D60000346FB7397F90F3018461037BD4680BD08
:101D700080B584B000AF786007F10E03796818462B
:101D8000FFF7E6F90346FB7397F90F30002B08D1F4
:101D9000BB7B042B05D179680020FFF729FA0346A5
:101DA000FB7397F90F3018461037BD4680BD80B5DC
:101DB00084B000AF7860396007F10C013B68022203
:101DC0003020FFF7CAF80346FB7397F90F30002B5A
:101DD0004FD13B7B5BB223F008035AB27B689B7800
:101DE0005BB2DB005BB203F008035BB213435BB290
:101DF000DBB23B733B7B5BB223F020035AB27B68C0
:101E0000DB785BB25B015BB203F020035BB2134390
:101E10005BB2DBB23B733B7B5BB223F004035AB291
:101E20007B681B795BB29B005BB203F004035BB27F
:101E300013435BB2DBB23B737B681B787B737B7BAA
:101E40005BB223F038035AB27B685B785BB2DB008D
:101E50005BB203F038035BB213435BB2DBB27B735C
:101E600007F10C013B6802223020FFF7AFF8034670
:101E7000FB7397F90F3018461037BD4680BD80B50B
:101E800084B000AF03463A60FB710B46BB71002380
:101E9000BB7307F10D0339681846FFF759F903467C
:101EA000FB7397F90F30002B53D17B7B002B05D0B0
:101EB00039680020FFF79CF90346FB7397F90F3050
:101EC000002B35D107F10E013B6801223020FFF7CE
:101ED00044F80346FB7397F90F30002B28D1BB7BE6
:101EE0005BB223F010035AB297F907301B015BB2C3
:101EF00003F010035BB213435BB2DBB2BB73BB7B7B
:101F00005BB223F040035AB297F906309B015BB2F3
:101F100003F040035BB213435BB2DBB2BB7307F168
:101F20000E013B6801223020FFF750F80346FB7397
:101F300097F90F30002B0CD17B7B002B09D07B7BDA
:101F4000042B06D07B7B39681846FFF751F903460E
:101F5000FB7397F90F3018461037BD4680BD80B42B
:101F600085B000AF786039600023FB733B689B79D4
:101F7000012B03D03B689B79022B18D13B689B7ADD
:101F80001F2B11D87B681B785BB223F01F035AB25A
:101F90003B689B7A5BB203F01F035BB213435BB2F7
:101FA000DAB27B681A701EE0F823FB731BE03B6813
:101FB0009B79032B17D13B689B7A0F2B11D87B6839
:101FC0001B785BB223F01F035AB23B689B7A5BB26B
:101FD00003F01F035BB213435BB2DAB27B681A7083
:101FE00001E0F823FB7397F90F3018461437BD460C
:101FF0005DF8047B7047000080B588B000AFF860E2
:10200000B9607A600023FB777B689B79032B00F033
:10201000B480032B00F34981012B02D0022B56D050
:1020200043E17B681B68BA68128813441B787F2BD6
:1020300011D17B681A68BB681B88013313441B7875
:102040007F2B08D17B681A68BB681B880233134456
:102050001B787F2B34D07B681A68BB681B880233DF
:1020600013441B781A047B681968BB681B8801330A
:102070000B441B781B0213437A681268B9680988FD
:102080000A4412781343BB61B869FEF71BFA4FF09C
:1020900000028D4BFEF7AAFB02460B46104619467E
:1020A000FEF72AFD0246FB685A60FB684FF000020B
:1020B0001A60BB681B8803339AB2BB681A80FDE0C4
:1020C000F723FB777B689A88BB681A80F6E07B6809
:1020D0001B68BA68128813441B787F2B11D17B6868
:1020E0001A68BB681B88013313441B787F2B08D107
:1020F0007B681A68BB681B88023313441B787F2BEC
:1021000034D07B681A68BB681B88023313441B7881
:102110001A047B681968BB681B8801330B441B7861
:102120001B0213437A681268B96809880A44127856
:1021300013437B617869FEF7B5F94FF00002634BFA
:10214000FEF754FB02460B4610461946FEF7D4FC38
:102150000246FB681A60FB684FF000025A60BB68D9
:102160001B8803339AB2BB681A80A7E0F723FB777A
:102170007B689A88BB681A80A0E07B681B68BA6895
:10218000128813441B787F2B2CD17B681A68BB689C
:102190001B88013313441B787F2B23D17B681A687B
:1021A000BB681B88023313441B787F2B1AD17B68D2
:1021B0001A68BB681B88033313441B787F2B11D12B
:1021C0007B681A68BB681B88043313441B787F2B19
:1021D00008D17B681A68BB681B88053313441B78D9
:1021E0007F2B5BD07B681A68BB681B880233134463
:1021F0001B781A047B681968BB681B8801330B4481
:102200001B781B0213437A681268B96809880A446C
:1022100012781343BB617B681A68BB681B8805335F
:1022200013441B781A047B681968BB681B88043345
:102230000B441B781B0213437A681168BA68128832
:1022400003320A44127813437B61B869FEF73AF906
:102250004FF000021C4BFEF7C9FA02460B4610462F
:102260001946FEF749FC0246FB685A607869FEF79A
:1022700019F94FF00002154BFEF7B8FA02460B466B
:1022800010461946FEF738FC0246FB681A60BB6828
:102290001B8806339AB2BB681A800FE0F723FB77DE
:1022A0007B689A88BB681A8008E0FB684FF00002E0
:1022B0001A60FB684FF000025A6000BF97F91F30A8
:1022C00018462037BD4680BD0000F0400000504059
:1022D00080B584B000AF786039607B68002B08D08F
:1022E0003B68012279682820FEF737FE0346FB731E
:1022F00001E0FF23FB7397F90F3018461037BD46F6
:1023000080BDB0B598B004AFB9607A603B60034659
:10231000FB733B6807F110041D460FCD0FC40FCDB2
:102320000FC40FCD0FC495E8030084E803003B7E83
:1023300087F84F307B69BB6497F84F3099B2FB7BCD
:102340009AB27B689BB2FF2002900193BB68009316
:102350000123B86C03F0BEFB03465BB2184650374E
:10236000BD46B0BDB0B598B004AFB9607A603B600F
:102370000346FB733B6807F110041D460FCD0FC4E5
:102380000FCD0FC40FCD0FC495E8030084E8030000
:102390003B7E87F84F307B69BB6497F84F3099B22A
:1023A000FB7B9AB27B689BB2FF2002900193BB68D3
:1023B00000930123B86C03F079FA03465BB2184628
:1023C0005037BD46B0BD80B487B000AFB9607A6009
:1023D0003B600346FB733B681B78FB750023184684
:1023E0001C37BD465DF8047B704780B487B000AFF2
:1023F000B9607A603B600346FB733B681B78FB75F2
:10240000002318461C37BD465DF8047B704780B535
:1024100082B000AF78603960786800F087FC00BF58
:102420000837BD4680BD000080B584B000AF78603D
:102430000B46FB700023FB73FB78012B0AD17B68F2
:10244000114ADA617B68114A1A627B68012283F8BB
:1024500037200CE0FB78002B09D17B680C4ADA614D
:102460007B680C4A1A627B68002283F837200A20B6
:1024700000F09AFC7B68084A5A6297F90F301846B8
:102480001037BD4680BD00BF032300086523000848
:10249000C7230008EB2300080F24000880B584B090
:1024A00000AF78600023FB727B684F4A5A607B68FC
:1024B00038334D4A5A607B6870334C4A5A607B68A7
:1024C000A8334A4A5A607B688C221A727B68383378
:1024D0008E221A727B6870338C221A727B68A83342
:1024E0008E221A720023FB6075E0FA681346DB0047
:1024F0009B1ADB001A467B68134401211846FFF73C
:1025000093FFFA681346DB009B1ADB001A467B68D0
:1025100013441846FEF7BAFD0346FB72FA681346E9
:10252000DB009B1ADB001A467B681344FA7A83F8B7
:102530003420032002F0BCF897F90B30002B47D170
:10254000FA681346DB009B1ADB001A467B681344CB
:102550001846FEF7B7FC0346FB72FA681346DB0029
:102560009B1ADB001A467B681344FA7A83F83520FD
:102570001F4AFB681344FA7A1A7097F90B30002B44
:1025800026D1FA681346DB009B1ADB001A467B68EB
:10259000134403F10C00FA681346DB009B1ADB00BE
:1025A0001A467B681344194600F03AF80346FB725A
:1025B000FA681346DB009B1ADB001A467B6813445B
:1025C000FA7A83F836200B4AFB681344FA7A1A70B9
:1025D000FB680133FB60FB68032B86DD00BF00BF97
:1025E0001037BD4680BD00BF4C010020A001002077
:1025F000380A0020300A002080B584B000AF78602F
:102600000023FB737B680C337968184600F08EF862
:102610000346FB7397F90F3018461037BD4680BD4F
:1026200080B588B002AF7860396039680020FEF765
:10263000DFFD0346FB7597F91730002B70D107F1CA
:102640000C0339681846FEF715FF0346FB7597F92A
:102650001730002B1FD10F23FB730123BB73032300
:102660003B7306237B7307F10C0339681846FEF7AA
:102670003DFF0346FB7597F91730002B0BD107235D
:102680003B7407237B7407F1100339681846FEF783
:10269000E7FF0346FB7597F91730002B1ED1396809
:1026A0007868FFF731F80346FB7597F91730002B70
:1026B00014D17B6800225A727B6803229A717B686E
:1026C0000022DA717B680122DA727B6801221A73B8
:1026D00039687868FFF782F80346FB7597F9173079
:1026E000002B17D13B680093012300220121002019
:1026F000FEF737FE0346FB7597F91730002B09D11B
:1027000001237B7207F1080339681846FEF7C0FD04
:102710000346FB7539680120FEF76AFD0346FB7529
:1027200097F9173018461837BD4680BD80B5BCB044
:1027300000AF78603960002387F8EF30002387F816
:10274000EE30002387F8ED3007F10C0380220021E2
:10275000184608F03FF958E007F1EC0339681846CD
:10276000FEF7DDFC034687F8EF3097F8EC3003F016
:102770000203002B44D07B6860229A807B6807F1BB
:102780008C021A6039687868FFF715F9034687F8F4
:10279000EF3097F9EF30002B32D107F10C031946D7
:1027A0007868FFF739F9034687F8EF3097F9EF308B
:1027B000002B20D1002387F8EE3016E097F8EE309A
:1027C000DB00F0333B44E43B1A683B68DA6297F87D
:1027D000EE30DB00F0333B44E03B1A683B681A63A1
:1027E00097F8EE30013387F8EE307B681B7A97F864
:1027F000EE209A42E2D397F8ED30013387F8ED30BE
:1028000097F8ED30013387F8ED3097F8ED30132B62
:10281000A2D997F9EF301846F037BD4680BD0000C9
:1028200080B483B000AF786079684FF000023E4B0F
:10283000C1E900233D4BD3E900237968C1E90223B4
:1028400079684FF000024FF00003C1E90423796872
:102850004FF00002344BC1E9062379684FF00002C3
:10286000314BC1E9082379684FF000024FF00003B3
:10287000C1E90A2379682AA3D3E90023C1E90C231B
:1028800079684FF000024FF00003C1E90E23796828
:102890004FF000024FF00003C1E9102379684FF0B8
:1028A0000002234BC1E9122379684FF000024FF078
:1028B0008043C1E9142379684FF000024FF0000310
:1028C000C1E9162379684FF000024FF00003C1E917
:1028D000182379684FF00002164BC1E91A23796872
:1028E0004FF000024FF00003C1E91C2379684FF05C
:1028F00000024FF00003C1E91E2379684FF0000287
:102900000C4BC1E920237B680122C3F8882000BF5B
:102910000C37BD465DF8047B704700BFAFF3008005
:102920007B14AE47E17A843F0000F03F00000020B6
:102930000000F83F00002440B0B59AB000AF7861C5
:1029400087ED020B39617A607B69D3E900017B690D
:10295000D3E91623FDF720FE02460B4614461D461A
:102960007B69D3E902017B69D3E91823FDF714FEE3
:1029700002460B4620462946FDF758FC02460B4608
:10298000C7E912237B69D3E904017B69D3E91623E4
:10299000FDF702FE02460B4614461D467B69D3E94D
:1029A00006017B69D3E91823FDF7F6FD02460B46C5
:1029B00020462946FDF73AFC02460B46C7E9142398
:1029C0007B69D3E900017B69D3E91A23FDF7E4FDB4
:1029D00002460B4614461D467B69D3E902017B691A
:1029E000D3E91E23FDF7D8FD02460B4620462946B3
:1029F000FDF71CFC02460B46104619467B69D3E9DD
:102A00000C23FDF713FC02460B46C7E90A237B693A
:102A1000D3E900017B69D3E91C23FDF7BDFD024624
:102A20000B4614461D467B69D3E902017B69D3E955
:102A30002023FDF7B1FD02460B4620462946FDF74F
:102A4000F5FB02460B46104619467B69D3E90E2377
:102A5000FDF7ECFB02460B46C7E90C237B69D3E983
:102A600004017B69D3E91A23FDF796FD02460B4664
:102A700014461D467B69D3E906017B69D3E91E2311
:102A8000FDF78AFD02460B4620462946FDF7CEFBA0
:102A900002460B46104619467B69D3E91023FDF721
:102AA000C5FB02460B46C7E90E237B69D3E9040147
:102AB0007B69D3E91C23FDF76FFD02460B461446E4
:102AC0001D467B69D3E906017B69D3E92023FDF725
:102AD00063FD02460B4620462946FDF7A7FB02464A
:102AE0000B46104619467B69D3E91223FDF79EFB7E
:102AF00002460B46C7E910237B69D3E90801D7E9F1
:102B00001223FDF749FD02460B4614461D467B691C
:102B1000D3E90A01D7E91423FDF73EFD02460B462F
:102B200020462946FDF782FB02460B46D7E9020103
:102B3000FDF77AFB02460B46C7E91823D7E90A01DD
:102B40007B69D3E91423FDF771FB02460B46C7E905
:102B50001623D7E90A01D7E91623FDF747FE0246F7
:102B60000B46C7E90623D7E90E01D7E91623FDF77F
:102B70003DFE02460B46C7E90823D7E91245D7E9CF
:102B80000601D7E91823FDF707FD02460B4620464C
:102B90002946FDF74BFB02460B467969C1E916232E
:102BA000D7E91445D7E90801D7E91823FDF7F4FC64
:102BB00002460B4620462946FDF738FB02460B46E7
:102BC0007969C1E91823D7E90A45D7E90601D7E9A8
:102BD0000A23FDF7E1FC02460B4620462946FDF795
:102BE00023FB02460B467969C1E91A23D7E90C4554
:102BF000D7E90601D7E90C23FDF7CEFC02460B46C8
:102C000020462946FDF710FB02460B467969C1E9CB
:102C10001C23D7E90E45D7E90801D7E90A23FDF7B8
:102C2000BBFC02460B4620462946FDF7FDFA02464C
:102C30000B467969C1E91E23D7E91045D7E9080198
:102C4000D7E90C23FDF7A8FC02460B46204629468F
:102C5000FDF7EAFA02460B467969C1E920237B6950
:102C6000D3E916233969C1E900237B69D3E9182325
:102C70007968C1E9002300BF6837BD46B0BD0000D8
:102C800080B500AF0248FFF7CBFD00BF80BD00BF9D
:102C9000B8000020B0B586B000AF87ED010AC7EDDF
:102CA000000A3868FDF720FC4FF00002154BFDF7D5
:102CB0009DFD02460B461449C1E90023124BD3E99E
:102CC00000231249C1E902237868FDF70DFC044690
:102CD0000D4607F1080207F11003194645EC104BA9
:102CE0000A48FFF729FED7E9042310461946FDF7E5
:102CF00003FF034607EE903AB0EE670A1837BD4669
:102D0000B0BD00BF00408F4000000020B800002090
:102D100080B400AF044BAA221A6000231846BD46B7
:102D20005DF8047B704700BF4801002080B489B083
:102D300000AF78600023BB61194B5B687B61194B66
:102D40001A687B6802FB03F33B61154B9B68FB61D0
:102D5000134B9B68FB60FA68FB699A42F8D0FA68EB
:102D6000FB699A4206D2FA69FB68D31ABA6913441E
:102D7000BB6107E07A69FB68D21AFB691344BA6940
:102D80001344BB61FB68FB61BA693B699A4200D29C
:102D9000DEE700BF00BF2437BD465DF8047B704707
:102DA00010E000E04801002080B582B000AF7860FC
:102DB0007B684FF47A7202FB03F31846FFF7B6FF05
:102DC00000BF0837BD4680BDB0B590B000AF01F080
:102DD00038FC00F067F800F0CFF900F09BF900F044
:102DE0004DF900F0ADF800F0EBF800F029F9254BB3
:102DF000D3F8943003F00053002B03D0224B012270
:102E00009A7102E0204B00229A711E4BD3F8943045
:102E10001C4A43F40003C2F894301C4B07F12C0405
:102E20001D460FCD0FC42B68236007F12C03002132
:102E3000184606F084FB0346154A1360154B07F14C
:102E400018041D460FCD0FC42B68236007F118032B
:102E50000021184606F073FB03460F4A13600F4B20
:102E60003C1D1D460FCD0FC42B6823603B1D002168
:102E7000184606F064FB0346094A136006F058FB47
:102E800000BFFDE700100240380A00208CB50008A2
:102E900058030020ACB500085C030020CCB5000846
:102EA0006003002080B594B000AF07F1180338220A
:102EB0000021184607F08EFD3B1D00221A605A6063
:102EC0009A60DA601A61002003F0D6FA0A23BB6127
:102ED0004FF480737B624023BB620123FB620223B9
:102EE0007B630223BB630423FB6355233B64022300
:102EF0007B640223BB640223FB6407F118031846BA
:102F000003F06EFB0346002B01D000F085F90F2380
:102F10007B600323BB600023FB6000233B61002335
:102F20007B613B1D0421184603F06CFE0346002B19
:102F300001D000F071F900BF5037BD4680BD0000E0
:102F400080B500AF1B4B1C4A1A601A4B1B4A5A60D3
:102F5000184B00229A60174B0122DA60154B0022B1
:102F60001A61144B00225A61124B00229A61114BD4
:102F70000022DA610F4B00221A620E4802F0FAFBBF
:102F80000346002B01D000F047F90021094803F067
:102F90007DF90346002B01D000F03EF900210548E1
:102FA00003F0BFF90346002B01D000F035F900BF54
:102FB00080BD00BF4C01002000540040361262402A
:102FC00080B500AF1B4B1C4A1A601A4B1B4A5A6053
:102FD000184B00229A60174B0122DA60154B002231
:102FE0001A61144B00225A61124B00229A61114B54
:102FF0000022DA610F4B00221A620E4802F0BAFB7F
:103000000346002B01D000F007F90021094803F026
:103010003DF90346002B01D000F0FEF800210548E1
:1030200003F07FF90346002B01D000F0F5F800BF54
:1030300080BD00BFA0010020005800403612624051
:1030400080B500AF0B4B0C4A1A600A4B02225A6043
:10305000084B40F6C412DA60064B40F6C4129A6080
:10306000044803F0AAF90346002B01D000F0D4F87D
:1030700000BF80BDF40100200030004080B500AFEB
:10308000224B234A1A60214B4FF4E1325A601F4B06
:1030900000229A601D4B0022DA601C4B00221A614C
:1030A0001A4B0C225A61194B00229A61174B0022CD
:1030B000DA61164B00221A62144B00225A62134B3B
:1030C00000229A62114804F001FD0346002B01D052
:1030D00000F0A2F800210D4806F0F3F80346002B9B
:1030E00001D000F099F80021084806F028F90346BD
:1030F000002B01D000F090F8044806F0A9F8034630
:10310000002B01D000F088F800BF80BD0402002031
:103110000038014080B582B000AF164B9B6C154A59
:1031200043F004039364134B9B6C03F004037B6034
:103130007B68104B9B6C0F4A43F0010393640D4B6B
:103140009B6C03F001033B603B68002205210B20D0
:1031500001F088FB0B2001F09FFB002205210C20D1
:1031600001F080FB0C2001F097FB00BF0837BD4643
:1031700080BD00BF0010024080B588B000AF07F1ED
:103180000C0300221A605A609A60DA601A61174BC9
:10319000DB6C164A43F00203D364144BDB6C03F080
:1031A0000203BB60BB68114BDB6C104A43F00103A8
:1031B000D3640E4BDB6C03F001037B607B68002261
:1031C00001210B4802F0A4FA0123FB6001233B61BB
:1031D00000237B610023BB6107F10C0319460448FF
:1031E00002F014F900BF2037BD4680BD0010024038
:1031F0000004004880B582B000AF78607B681B682F
:10320000044A934201D101F035FA00BF0837BD46A8
:1032100080BD00BF002C014080B400AF72B600BF7B
:1032200000BFFDE780B582B000AF124B1B6E114AA4
:1032300043F0010313660F4B1B6E03F001037B6029
:103240007B680C4B9B6D0B4A43F080539365094B95
:103250009B6D03F080533B603B6800220F216FF0B1
:10326000010001F0FFFA03F0ABF900BF0837BD46DB
:1032700080BD00BF0010024080B59EB000AF7860F6
:1032800007F1640300221A605A609A60DA601A61DA
:1032900007F1200344220021184607F09BFB7B68BE
:1032A0001B684C4A934254D140233B620023BB63CA
:1032B00007F12003184603F0F3FE0346002B01D06C
:1032C000FFF7AAFF444BDB6C434A43F00103D3648E
:1032D000414BDB6C03F00103FB61FB693E4BDB6C94
:1032E0003D4A43F00203D3643B4BDB6C03F0020323
:1032F000BB61BB694FF400437B661223BB660023AE
:10330000FB6600233B6704237B6707F164031946D0
:103310004FF0904002F07AF880237B661223BB6660
:103320000023FB6600233B6704237B6707F16403EC
:1033300019462A4802F06AF8274B9B6D264A43F447
:1033400000139365244B9B6D03F400137B617B6931
:103350003CE07B681B68224A934237D180233B6262
:103360000023FB6307F12003184603F099FE034690
:10337000002B01D0FFF750FF174BDB6C164A43F0D0
:103380000103D364144BDB6C03F001033B613B6925
:103390004FF440737B661223BB660023FB66002359
:1033A0003B6704237B6707F1640319464FF09040A5
:1033B00002F02CF8084B9B6D074A43F48003936599
:1033C000054B9B6D03F48003FB60FB6800BF7837FF
:1033D000BD4680BD0054004000100240000400487B
:1033E0000058004080B59CB000AF786007F15C03E6
:1033F00000221A605A609A60DA601A6107F11803B5
:1034000044220021184607F0E5FA7B681B685B4AF6
:10341000934240F0AF800123BB610023FB6107F1C1
:103420001803184603F03CFE0346002B01D0FFF7BB
:10343000F3FE534B1B6E524A43F480431366504BCA
:103440001B6E03F480437B617B694D4BDB6C4C4A04
:1034500043F00103D3644A4BDB6C03F001033B618F
:103460003B69474BDB6C464A43F00203D364444B51
:10347000DB6C03F00203FB60FB684FF48063FB65C9
:1034800002233B6600237B660023BB660723FB66A3
:1034900007F15C0319464FF0904001F0B7FF40235D
:1034A000FB6502233B6600237B660023BB66072384
:1034B000FB6607F15C031946324801F0A7FF324B67
:1034C000324A1A60304B18225A602F4B00229A6001
:1034D0002D4B0022DA602C4B80221A612A4B0022ED
:1034E0005A61294B00229A61274B0022DA61264B50
:1034F00000221A62244801F0DDF90346002B01D0B6
:10350000FFF78AFE7B68204AC3F880201E4A7B684A
:1035100093621F4B1F4A1A601D4B19225A601C4BA5
:1035200010229A601A4B0022DA60194B80221A612D
:10353000174B00225A61164B00229A61144B00224D
:10354000DA61134B00221A62114801F0B3F9034605
:10355000002B01D0FFF760FE7B680D4ADA670C4A4A
:103560007B68936200220521252001F07BF925204C
:1035700001F092F900BF7037BD4680BD00380140B0
:103580000010024000040048980200200800024099
:10359000F80200201C00024080B58CB000AF7860BB
:1035A0000023BB6200237B622C4B1B6E2B4A43F42F
:1035B00000631366294B1B6E03F40063BB60BB689A
:1035C00007F10C0207F110031146184603F0F0FC56
:1035D00003F0D8FCB862BB6A214AA2FB03239B0C10
:1035E000013B7B621F4B204A1A601E4B40F2E732C0
:1035F000DA601C4A7B6A53601A4B00221A61194B2D
:1036000000229A60174803F03BFF034687F82F30EB
:1036100097F82F30002B1BD1124803F093FF03467D
:1036200087F82F3097F82F30002B11D1192001F097
:1036300033F97B680F2B08D800227968192001F034
:1036400011F90A4A7B68136002E0012387F82F30E2
:1036500097F82F3018463037BD4680BD0010024025
:1036600083DE1B4364030020002C0140180000206F
:1036700080B400AF00BFFDE780B400AF00BFFDE73E
:1036800080B400AF00BFFDE780B400AF00BFFDE72E
:1036900080B400AF00BFFDE780B400AF00BFBD46FF
:1036A0005DF8047B7047000080B500AF024801F070
:1036B000E4FA00BF80BD00BF9802002080B500AFD3
:1036C000024801F0DAFA00BF80BD00BFF802002016
:1036D00080B500AF024803F09FFF00BF80BD00BF70
:1036E0006403002080B500AF024804F0BFFA00BFB9
:1036F00080BD00BF0402002080B400AF064BD3F8A9
:103700008830054A43F47003C2F8883000BFBD46D4
:103710005DF8047B704700BF00ED00E080B586B027
:1037200000AF786006F0FAFA0346FB60FFF7F0FAA4
:103730004748FEF7B3FE00237B6161E07A691346D8
:10374000DB009B1ADB00424A13441846FEF754FF85
:103750000346FB743F4A7B691344FA7C1A7097F95D
:103760001330002B49D17B69012B23DC38497A695E
:103770001346DB009B1ADB000B442C3393ED007ADD
:10378000354BD3ED097A77EE677AB0EE670A002001
:1037900000F06AF82E497A691346DB009B1ADB00B9
:1037A0000B443033D3ED007AB0EE670A012000F00D
:1037B0005BF822E026497A691346DB009B1ADB009E
:1037C0000B442C3393ED007A234BD3ED097A77EE3B
:1037D000677AB0EE670A022000F046F81C497A6961
:1037E0001346DB009B1ADB000B443033D3ED007A29
:1037F000B0EE670A032000F037F87B6901337B6184
:103800007B69032B9ADD07F10C031421184606F09F
:10381000D1F8124B1B68002B04D106F07FFA034647
:103820000E4A136006F07AFA02460C4B1B68D31A54
:10383000B3F5487F07D306F071FA0346074A1360D1
:10384000074802F009FE0121064801F079FF72E7FE
:10385000B0030020280A00206C0A0020240A00205F
:10386000F401002000040048B0B485B000AF034666
:1038700087ED000AFB71FB79062B4ED83123FB72D2
:1038800017E0F879FB7A5A1EF979FB7A254C322534
:1038900005FB00F0024492002244126821483224C1
:1038A00004FB01F10B449B0003441A60FB7A013BCB
:1038B000FB72FB7A002BE4D1FB791A4AC82101FB89
:1038C00003F313443A681A604FF00003FB600023CF
:1038D000BB7213E0FA79BB7A1249322000FB02F284
:1038E00013449B000B44D3ED007A97ED037A77EEF7
:1038F000277AC7ED037ABB7A0133BB72BB7A312BCF
:10390000E8D9FB7997ED037ADFED076AC7EE267AEF
:10391000064A9B001344C3ED007A00BF1437BD462E
:10392000B0BC7047AC040020000048429004002066
:10393000B0B596B000AFF860B9607A60BB68FB6460
:1039400001F056FB00237B6540E04FF000024FF092
:103950000003C7E910237A687B6DD31ABB64BB6C84
:10396000072B09D9FA6C7B6D13441C685D682246ED
:103970002B46C7E910231BE000233B6508E007F155
:1039800038023B6D1344FF221A703B6D01333B65D7
:103990003B6D072BF3D9FA6C7B6DD11807F1380317
:1039A000BA6C184607F0B0F8D7E90E23C7E9102320
:1039B000FA687B6DD118D7E91023002001F0ACFA2A
:1039C0000346002B07D17B6D08337B657A6D7B68DE
:1039D0009A42BAD300E000BF01F02CFB7B68282B91
:1039E0000DD807F110037A681946F86800F00BF853
:1039F00007F110037A68B968184606F0DBFF00BFCC
:103A00005837BD46B0BD80B487B000AFF860B9602C
:103A10007A60BB683B6100237B610BE0FA687B69DD
:103A2000134419463A697B6913440A781A707B6912
:103A300001337B617A697B689A42EFD300BF00BF94
:103A40001C37BD465DF8047B704780B588B000AF79
:103A5000786001F0CDFA00233B617B6803F1784385
:103A6000DB0ABB610123FB6107F10C0207F11003C4
:103A70001146184601F0A6FB01F0DCFA00BF203722
:103A8000BD4680BDB0B586B000AF78600B467B8088
:103A90000023FB757B681B68544A934240F0A28068
:103AA000534B1B784C2B4ED1514B5B78472B4AD153
:103AB000504A4F4B14461D460FCD0FC40FCD0FC4B7
:103AC00095E8070084E807000023FB7502233B61AB
:103AD00009E0474A3B6913441A78FB7D5340FB7564
:103AE0003B6901333B613B692B2BF2D9FB7D002BFA
:103AF00068D1404BD3F80330BB60D7ED027AB7EE04
:103B0000007AF4EEC77AF1EE10FA10D53A4BBB60AA
:103B10003A4B93ED0B7AD7ED027ADFED396A67EE17
:103B2000A67A77EE677A374BC3ED097A02E0354A19
:103B3000BB6853623448FFF788FF28223149324876
:103B4000FFF7F6FE3EE02A4B1B784C2B3BD1284B6F
:103B50005B78482B37D1274A254B14461D460FCD9D
:103B60000FC40FCD0FC495E8070084E807000023B9
:103B7000FB750223FB6009E01D4AFB6813441A78B9
:103B8000FB7D5340FB75FB680133FB60FB682B2B0F
:103B9000F2D9FB7D002B16D1164BDB7A002B08D017
:103BA00020220021194806F015FF1949174806F090
:103BB000A3FF1548FFF749FF282212491248FFF7D3
:103BC000B7FE00E000BF00F07FF86422084911480A
:103BD00005F0F3FB104B1B681A680F4B1B6822F0B3
:103BE00004021A6000BF1837BD46B0BD003801405E
:103BF000940A0020400A002000507D44B0030020B9
:103C00000000C8426C0A002000F80108700A002079
:103C10004B0A0020040200209802002080B584B0E6
:103C200000AF786006F07AF80346BB606423FB605F
:103C300064221D491D4805F0C0FB1D4B1B681A6816
:103C40001B4B1B6822F004021A60282219491A48EB
:103C5000FFF7D9FE174B1B68184A934217D028224A
:103C60000021144806F0B6FE124B144A1A60114B9C
:103C7000134A5A6220220021124806F0ABFE0E4879
:103C8000FFF7E3FE28220B490B48FFF751FE4FF4E4
:103C9000FA6005F07BFC00F017F807F10803F968FB
:103CA000184605F087FEF8E7940A00200402002079
:103CB000980200206C0A002000F801085A5AA5A5B5
:103CC00000009642700A0020B0B582B000AF002319
:103CD000FB712C2200211E4806F07CFE1C4B4C225E
:103CE0001A701B4B47225A701A4B5B6A184AC2F86B
:103CF000033020221849194806F006FF184A144BD1
:103D000014461D460FCD0FC40FCD0FC495E8070014
:103D100084E8070002233B6009E0114A3B68134432
:103D20001A78FB795340FB713B6801333B603B6879
:103D30002A2BF2D90A4AFB7982F82B302C22084927
:103D4000084803F013FF00BF0837BD46B0BD00BFF1
:103D5000400A00206C0A0020700A00204B0A002054
:103D6000F80A002004020020B0B58EB000AF87ED45
:103D7000010A7868FCF7B8FB63A3D3E90023FCF7DA
:103D800035FD02460B46C7E90A23D7E90A01FCF7CD
:103D9000B3FE0346DFED560A00EE103A06F044FF8C
:103DA00010EE103A1846FCF79FFB02460B46C7E997
:103DB0000823D7E908234FF000004E49FCF734FAF6
:103DC00002460B46144623F000453FA3D3E90023E7
:103DD00020462946FCF7E0FB02460B46C7E90C23C8
:103DE0003BA3D3E90023D7E90C01FCF747FE0346C8
:103DF000002B25D038A3D3E90023D7E90C01FCF729
:103E0000CBFB02460B46C7E90C23D7E90C2330A1B4
:103E1000D1E90001FCF708FA02460B4610461946A4
:103E20002FA3D3E90023FCF7B7FB02460B46D7E9E3
:103E30000C01FCF7FBF902460B46C7E90C230AE02C
:103E400029A3D3E90023D7E90C01FCF7A5FB02461F
:103E50000B46C7E90C23284B5B681846FCF744FB6C
:103E60004FF00002254BFCF7DFF902460B46C7E98D
:103E70000623234BD3E90001D7E90623FCF78CFB8B
:103E800002460B46104619461E4BD3E90023FCF7A9
:103E9000CDF902460B46C7E90423D7E90423D7E945
:103EA0000C01FCF7C1F902460B46C7E90223D7E92A
:103EB000022343EC172BB0EE470AF0EE670A3837BF
:103EC000BD46B0BDAFF30080FFFFFFFF7FA2E5401E
:103ED000000000000088B3403AC956975302F03FF3
:103EE0002D431CEBE2362A3FA852B3075A01F03F9C
:103EF00035D2423E0000F03F9004002000003840E0
:103F000010000020800C002000000000D0BCF84011
:103F100080B58EB000AF87ED010AC7ED000A97EDBE
:103F2000007AD7ED017A77EE677A17EE900AFCF700
:103F3000DBFA02460B46C7E90C234FF00002584B50
:103F4000D7E90C01FCF728FB02460B46C7E90C2316
:103F5000D7E90C0102460B46FCF768F902460B460E
:103F60001046194644A3D3E90023FCF73FFC024660
:103F70000B461146B96223F00043FB6297ED0A0B32
:103F800006F026FE87ED080B3DA3D3E90023D7E911
:103F90000801FCF773FD0346002B2AD03AA3D3E9AE
:103FA0000023D7E90801FCF7F7FA02460B46C7E9F8
:103FB0000823D7E9082332A1D1E90001FCF734F93D
:103FC00002460B461046194631A3D3E90023FCF7FD
:103FD000E3FA02460B46D7E90801FCF727F9024647
:103FE0000B46C7E90823D7E90801FCF785FD03461E
:103FF0003BE029A3D3E90023D7E90801FCF7CCFA79
:1040000002460B46C7E90823264B5B681846FCF7B7
:104010006BFA4FF00002244BFCF706F902460B4600
:10402000C7E90623214BD3E90001D7E90623FCF7B2
:10403000B3FA02460B46104619461D4BD3E900233E
:10404000FCF7F4F802460B46C7E90423D7E904233A
:10405000D7E90801FCF7E8F802460B46C7E9022356
:10406000D7E90201FCF748FD034607EE903AB0EEAF
:10407000670A3837BD4680BDCDCCCCCCCC54594036
:1040800000000000006078407089ADBDA771F03F6E
:10409000C7BAB88D06F0663F0196DD9B3143F03F0D
:1040A00000408F40900400200000384010000020A5
:1040B000800C002080B485B000AF87ED010A0B238F
:1040C000FB720DE0FB7A5A1EFB7A1C4992000A44EF
:1040D00012681A499B000B441A60FB7A013BFB7281
:1040E000FB7A002BEED1154A7B6813604FF000037A
:1040F000FB600023BB720EE0BB7A104A9B001344A6
:10410000D3ED007A97ED037A77EE277AC7ED037A3D
:10411000BB7A0133BB72BB7A0B2BEDD9D7ED037A97
:10412000B2EE087AC7EE876AF0EE667AB0EE670AFA
:104130001437BD465DF8047B704700BF880C002033
:1041400080B485B000AF87ED010A0B23FB720DE050
:10415000FB7A5A1EFB7A1C4992000A4412681A49DB
:104160009B000B441A60FB7A013BFB72FB7A002B2D
:10417000EED1154A7B6813604FF00003FB6000230B
:10418000BB720EE0BB7A104A9B001344D3ED007A59
:1041900097ED037A77EE277AC7ED037ABB7A01337E
:1041A000BB72BB7A0B2BEDD9D7ED037AB2EE087A4E
:1041B000C7EE876AF0EE667AB0EE670A1437BD463E
:1041C0005DF8047B704700BFB80C002000000000C1
:1041D000B0B582B000AF0023FB71694B41221A7069
:1041E000674B4F225A70664B9B780133DAB2644BAF
:1041F0009A70644BD3ED007AB0EE670AFFF7B4FD16
:1042000053EC102B10461946FCF776FC034600EEE3
:10421000103AFFF74FFFF0EE407A594B17EE902A15
:10422000C3F80320574BD3ED007A564B93ED027A37
:10423000F0EE470AB0EE670AFFF76AFEF0EE407A4A
:104240004F4B17EE902AC3F8072000F025FA0246DC
:104250004D4B1B68D31A4D4A136000F01DFA0346FC
:10426000494A1360464BD3F8032013461A46484B7D
:10427000D3ED007A07EE102A77EE677A17EE900AF0
:10428000FCF732F904460D46404B1B681846FCF714
:1042900009F94FF000023F4BFCF7A8FA02460B4623
:1042A00020462946FCF7A2FA02460B46104619465C
:1042B00031A3D3E90023FCF76FF902460B46104601
:1042C0001946FCF719FC0346334A13602C4BD3F80C
:1042D00003302F4A1360304BD3ED007AB0EE670AFB
:1042E000FFF72EFFB0EE407A284B1B6807EE903A9E
:1042F000F8EE677AF0EE670AB0EE470AFEF7CAFCFE
:10430000F0EE407A1E4B17EE902AC3F80B201D4B9F
:10431000D3ED027A9FED217A67EE877AFCEEE77A99
:1043200017EE902A164BC3F80F20164BD3ED007AE8
:104330009FED1A7A67EE877AFCEEE77A17EE902AFD
:104340000F4BC3F813200F4B5A680D4BC3F81B20BB
:104350000C4BDA680A4BC3F81720094B0022DA77B6
:10436000074B002283F82020054B002283F82120F0
:1043700000233B605AE000BFCDCCCCCCCCCC0C4071
:104380005C0C002090040020F00C0020F40C0020B5
:10439000E80C002000408F40EC0C00200000C842D8
:1043A0003B68032B3FDC774A3B68134493F90030AA
:1043B000002B0CD0744BDB7F5AB201213B6801FA11
:1043C00003F35BB213435BB2DAB26F4BDA776F4A37
:1043D0003B68134493F90030002B0ED06A4B93F8DE
:1043E00020305AB201213B6801FA03F35BB2134358
:1043F0005BB2DAB2644B83F82020654A3B68134411
:1044000093F90030002B0ED05F4B93F821305AB255
:1044100001213B6801FA03F35BB213435BB2DAB2EA
:10442000594B83F821203B6801333B603B68032BE9
:10443000B6DD544B1B79002B06D0534BDB7F43F08A
:104440001003DAB2504BDA77504B1B79002B08D0AF
:104450004D4B93F8203043F01003DAB24A4B83F807
:1044600020204B4B1B79002B08D0474B93F8213071
:1044700043F01003DAB2444B83F82120414B5B79BF
:10448000002B06D0404BDB7F43F02003DAB23E4BDB
:10449000DA773E4B5B79002B08D03B4B93F820300A
:1044A00043F02003DAB2384B83F82020384B5B7995
:1044B000002B08D0344B93F8213043F02003DAB2BC
:1044C000314B83F821202F4B9B79002B06D02E4BAC
:1044D000DB7F43F04003DAB22B4BDA772B4B9B792F
:1044E000002B08D0284B93F8203043F04003DAB279
:1044F000254B83F82020264B9B79002B08D0224B9C
:1045000093F8213043F04003DAB21F4B83F82120A7
:10451000204A1D4B14461D460FCD0FC40FCD0FC4AE
:104520002B681A46228002341B0C2370164B002283
:1045300083F822200223FB710DE0134B93F8222015
:10454000FB791449CB5C5340DAB20F4B83F822203D
:10455000FB790133FB71FB79212BEED90A4B93F8E0
:1045600022200C4B83F8222023220A490A4803F018
:10457000FDFA03461A46064B1A7100BF0837BD46BE
:10458000B0BD00BF380A00205C0C0020300A0020BB
:10459000280A00205C0B00200402002080B584B0B3
:1045A00000AF786005F0BAFB0346BB601423FB60E4
:1045B0004FF47A7005F07EFAFEF762FB0A4BD3F8EF
:1045C0008830202B03D1094B00221A7102E0074BDF
:1045D00001221A71FFF7FCFD07F10803F96818467C
:1045E00005F0E8F900BFF5E704020020380A0020D2
:1045F0000D488546FFF780F80C480D490D4A002309
:1046000002E0D458C4500433C4188C42F9D30A4A87
:104610000A4C002301E013600432A242FBD306F0EF
:1046200045FAFEF7D1FBFEE70080002000000020E5
:104630009400002060B6000898000020903F002001
:10464000FEE780B582B000AF0023FB71032000F0CD
:10465000FEF80F20FEF7A0FF0346002B02D0012337
:10466000FB7101E0FEF7DEFDFB7918460837BD4619
:1046700080BD000080B400AF054B1A68054B1B6875
:104680001344034A136000BFBD465DF8047B7047C6
:10469000F80C00201C00002080B400AF034B1B6806
:1046A0001846BD465DF8047B704700BFF80C00203B
:1046B00080B584B000AF7860FFF7EEFFB8607B682C
:1046C000FB60FB68B3F1FF3F04D0094B1B68FA683D
:1046D0001344FB6000BFFFF7DFFF0246BB68D31A3D
:1046E000FA689A42F7D800BF00BF1037BD4680BDB8
:1046F0001C00002080B485B000AF78607B6803F0B8
:104700000703FB600C4BDB68BB60BA684FF6FF0326
:104710001340BB60FB681A02BB68134343F0BF63DE
:1047200043F40033BB60044ABB68D36000BF143756
:10473000BD465DF8047B704700ED00E080B400AF3B
:10474000044BDB681B0A03F007031846BD465DF8FF
:10475000047B704700ED00E080B483B000AF0346F7
:10476000FB7197F90730002B0BDBFB7903F01F027D
:10477000074997F907305B09012000FA02F241F876
:10478000232000BF0C37BD465DF8047B704700BF97
:1047900000E100E080B483B000AF03463960FB71F4
:1047A00097F90730002B0ADB3B68DAB20C4997F91E
:1047B00007301201D2B20B4483F800230AE03B68B1
:1047C000DAB20849FB7903F00F03043B1201D2B2BD
:1047D0000B441A7600BF0C37BD465DF8047B70476A
:1047E00000E100E000ED00E080B489B000AFF860C7
:1047F000B9607A60FB6803F00703FB61FB69C3F1F2
:104800000703042B28BF0423BB61FB690433062B79
:1048100002D9FB69033B00E000237B614FF0FF32CC
:10482000BB6902FA03F3DA43BB681A407B699A401A
:104830004FF0FF317B6901FA03F3D9437B680B40EA
:10484000134318462437BD465DF8047B704780B596
:1048500082B000AF78607868FFF74CFF00BF083780
:10486000BD4680BD80B586B000AF0346B9607A60B2
:10487000FB73FFF763FF78617A68B9687869FFF7BF
:10488000B3FF024697F90F3011461846FFF782FF33
:1048900000BF1837BD4680BD80B582B000AF03466B
:1048A000FB7197F907301846FFF756FF00BF08372E
:1048B000BD4680BD80B584B000AF78607B68002BBA
:1048C00001D101238DE07B681B681A46474B9A4251
:1048D0000FD87B681B681A46454B1344454AA2FB18
:1048E00003231B099A007B685A647B68424A1A6456
:1048F0000EE07B681B681A46404B13443D4AA2FBFE
:1049000003231B099A007B685A647B683C4A1A643B
:104910007B68022283F825207B681B681B68FB608C
:10492000FB6823F4FF4323F07003FB607B689A6805
:104930007B68DB681A437B681B691A437B685B6989
:104940001A437B689B691A437B68DB691A437B685F
:104950001B6A1343FA681343FB607B681B68FA68A1
:104960001A60786800F076FA7B689B68B3F5804F30
:1049700002D17B6800225A607B685A687B689B6C16
:10498000D2B21A607B68DB6C7A68126D5A607B6801
:104990005B68002B10D07B685B68042B0CD87868B0
:1049A00000F096FA7B685B6D00221A607B689B6D55
:1049B0007A68D26D5A6008E07B6800225A657B688D
:1049C00000229A657B680022DA657B680022DA6340
:1049D0007B68012283F825207B68002283F824204D
:1049E000002318461037BD4680BD00BF07040240B3
:1049F000F8FFFDBFCDCCCCCC00000240F8FBFDBFE2
:104A00000004024080B586B000AFF860B9607A60FB
:104A10003B600023FB75FB6893F82430012B01D128
:104A2000022366E0FB68012283F82420FB6893F8E8
:104A30002530DBB2012B55D1FB68022283F82520FB
:104A4000FB680022DA63FB681B681A68FB681B6856
:104A500022F001021A603B687A68B968F86800F0D1
:104A6000BBF9FB681B6B002B08D0FB681B681A683E
:104A7000FB681B6842F00E021A600FE0FB681B68BF
:104A80001A68FB681B6822F004021A60FB681B6846
:104A90001A68FB681B6842F00A021A60FB689B6C8C
:104AA0001B6803F48033002B07D0FB689B6C1A68EB
:104AB000FB689B6C42F480721A60FB685B6D002B94
:104AC00007D0FB685B6D1A68FB685B6D42F480720F
:104AD0001A60FB681B681A68FB681B6842F00102D9
:104AE0001A6005E0FB68002283F824200223FB758E
:104AF000FB7D18461837BD4680BD80B485B000AF39
:104B000078600023FB737B6893F82530DBB2022BBF
:104B100005D07B680422DA630123FB7337E07B68EE
:104B20001B681A687B681B6822F00E021A607B689B
:104B30009B6C1A687B689B6C22F480721A607B689D
:104B40001B681A687B681B6822F001021A607B6888
:104B50005B6C03F01F027B681B6C012101FA02F2FF
:104B60005A607B68DB6C7A68126D5A607B685B6D9B
:104B7000002B0CD07B685B6D1A687B685B6D22F440
:104B800080721A607B689B6D7A68D26D5A607B6810
:104B9000012283F825207B68002283F82420FB7BF8
:104BA00018461437BD465DF8047B704780B584B065
:104BB00000AF78600023FB737B6893F82530DBB28D
:104BC000022B0DD07B680422DA637B68012283F814
:104BD00025207B68002283F824200123FB7347E013
:104BE0007B681B681A687B681B6822F00E021A60DB
:104BF0007B681B681A687B681B6822F001021A60D8
:104C00007B689B6C1A687B689B6C22F480721A60CC
:104C10007B685B6C03F01F027B681B6C012101FA4F
:104C200002F25A607B68DB6C7A68126D5A607B68AE
:104C30005B6D002B0CD07B685B6D1A687B685B6DCD
:104C400022F480721A607B689B6D7A68D26D5A601C
:104C50007B68012283F825207B68002283F82420CA
:104C60007B689B6B002B03D07B689B6B78689847B5
:104C7000FB7B18461037BD4680BD80B584B000AFC1
:104C800078607B681B6C1B68FB607B681B681B681B
:104C9000BB607B685B6C03F01F0304229A40FB68D7
:104CA0001340002B26D0BB6803F00403002B21D057
:104CB0007B681B681B6803F02003002B07D17B680F
:104CC0001B681A687B681B6822F004021A607B6804
:104CD0005B6C03F01F027B681B6C042101FA02F27B
:104CE0005A607B681B6B002B71D07B681B6B7868EC
:104CF00098476CE07B685B6C03F01F0302229A40CC
:104D0000FB681340002B2ED0BB6803F00203002B7E
:104D100029D07B681B681B6803F02003002B0BD194
:104D20007B681B681A687B681B6822F00A021A609D
:104D30007B68012283F825207B685B6C03F01F02EF
:104D40007B681B6C022101FA02F25A607B68002228
:104D500083F824207B68DB6A002B38D07B68DB6A11
:104D60007868984733E07B685B6C03F01F03082288
:104D70009A40FB681340002B2AD0BB6803F008035D
:104D8000002B25D07B681B681A687B681B6822F0A3
:104D90000E021A607B685B6C03F01F027B681B6C61
:104DA000012101FA02F25A607B680122DA637B6812
:104DB000012283F825207B68002283F824207B6869
:104DC0005B6B002B04D07B685B6B7868984700BFF7
:104DD00000BF1037BD4680BD80B485B000AFF8601D
:104DE000B9607A603B60FB68DB6CFA68126D5A60F0
:104DF000FB685B6D002B04D0FB689B6DFA68D26D7D
:104E00005A60FB685B6C03F01F02FB681B6C01219E
:104E100001FA02F25A60FB681B683A685A60FB6844
:104E20009B68102B08D1FB681B687A689A60FB6846
:104E30001B68BA68DA6007E0FB681B68BA689A60AA
:104E4000FB681B687A68DA6000BF1437BD465DF8FE
:104E5000047B704780B487B000AF78607B681B68C4
:104E60001A46164B9A4202D8154B7B6101E0154B4E
:104E70007B617B693B617B681B68DBB2083B124A44
:104E8000A2FB03231B09FB607B685B6C9B089A00F9
:104E90003B6913441A467B689A647B680B4ADA6460
:104EA000FB6803F01F0301229A407B681A6500BF6C
:104EB0001C37BD465DF8047B704700BF0704024005
:104EC0000008024020080240CDCCCCCC8008024033
:104ED00080B485B000AF78607B685B68DBB2FB6054
:104EE000FA680B4B13449B001A467B685A657B6833
:104EF000084A9A65FB68013B03F01F0301229A40B0
:104F00007B68DA6500BF1437BD465DF8047B7047E7
:104F10003F8200104009024080B586B000AFF860C3
:104F2000B960C7E9002300233B612F4B1B78012B9D
:104F300001D1022353E02C4B01221A704FF47A70F6
:104F400000F092F80346FB75FB7D002B43D1264B06
:104F500000225A60254B1B6803F48063002B09D0A4
:104F6000224B1B68214A23F4806313601E4B0222EC
:104F70001A7702E01C4B00221A77FB68002B07D13E
:104F8000D7E90023B86800F0C1F801233B6110E0C5
:104F9000FB68012B02D0FB68022B0AD13B68194643
:104FA000B86800F0D9F8FB68022B02D14FF48023D7
:104FB0003B614FF47A7000F057F80346FB753B698C
:104FC000002B06D0094B5A693B69DB430749134064
:104FD0004B6100F0D1F9044B00221A70FB7D18469A
:104FE0001837BD4680BD00BF2000002000200240D1
:104FF00080B483B000AF0023FB710B4B5B69002BC7
:105000000BDA094B094A9A60074B094A9A60064B2A
:105010005B69002B01DA0123FB71FB7918460C3721
:10502000BD465DF8047B70470020024023016745C0
:10503000AB89EFCD80B483B000AF0123FB71094B86
:105040005B69084A43F000435361064B5B69002BE0
:1050500001DA0023FB71FB7918460C37BD465DF879
:10506000047B70470020024080B584B000AF7860B8
:10507000FFF712FBF86009E0FFF70EFB0246FB6842
:10508000D31A7A689A4201D2032337E01D4B1B6979
:1050900003F48033B3F5803FEED01A4B1A694CF21B
:1050A000FA331340BB60BB68002B1DD0164B5A6807
:1050B000BB681343144A5360BB68B3F1804F07D3F6
:1050C000104B9A69BB6803F040430E4913438B6150
:1050D000BB6823F04043002B04D00A4ABB6823F08E
:1050E00040431361012309E0064B1B6903F00103F0
:1050F000012B02D1034B01221A61002318461037FD
:10510000BD4680BD002002402000002080B485B054
:1051100000AFF860C7E900230E4B5B690D4A43F00E
:1051200001035361FB683A681A60BFF36F8F00BFD9
:10513000D7E900014FF000024FF000030A000023FE
:10514000F968043113460B6000BF1437BD465DF8A3
:10515000047B70470020024080B489B000AF7860C3
:1051600039604023FB777B68BB613B687B61144BF4
:105170005B69134A43F480235361EFF31083FB60B0
:10518000FB683B6172B600BF7B691A68BB691A6035
:10519000BB690433BB617B6904337B61FB7F013BEB
:1051A000FB77FB7F002BEFD13B69BB60BB6883F3D0
:1051B000108800BF00BF2437BD465DF8047B7047F0
:1051C0000020024080B584B000AF78603960474B62
:1051D0001B78012B01D1022383E0444B01221A707A
:1051E0004FF47A70FFF740FF0346FB73FB7B002B05
:1051F00073D13E4B00225A603D4B1B6803F4007391
:10520000002B13D03A4B1B6803F48063002B09D0AA
:10521000374B1B68364A23F480631360334B0322F9
:105220001A7716E0314B01221A7712E0304B1B68D7
:1052300003F48063002B09D02D4B1B682C4A23F408
:1052400080631360294B02221A7702E0274B002269
:105250001A777B681B68012B11D17B685B68184645
:1052600000F048F84FF47A70FFF7FEFE0346FB7338
:105270001F4B5B691E4A23F0040353612BE03B681C
:105280004FF0FF321A607B689B68BB601BE07B6855
:105290005B681946B86800F04BF84FF47A70FFF776
:1052A000E3FE0346FB73124B5B69114A23F4FD7363
:1052B0005361FB7B002B03D03B68BA681A600AE09D
:1052C000BB680133BB607B689A687B68DB6813440A
:1052D000BA689A42DBD300F04FF8044B00221A70F0
:1052E000FB7B18461037BD4680BD00BF2000002064
:1052F0000020024080B483B000AF78607B6803F088
:105300000103002B05D0094B5B69084A43F00403F5
:105310005361064B5B69054A43F48033536100BF18
:105320000C37BD465DF8047B704700BF002002408B
:1053300080B483B000AF786039600E4B5B6923F4B2
:10534000FC727B68DB0003F4FF630A4913434B6183
:10535000084B5B69074A43F002035361054B5B69E5
:10536000044A43F48033536100BF0C37BD465DF8F7
:10537000047B70470020024080B483B000AF214B13
:105380001B7FFB71FB79012B02D0FB79032B17D11B
:105390001D4B1B681C4A23F4007313601A4B1B68D7
:1053A000194A43F400631360174B1B68164A23F431
:1053B00000631360144B1B68134A43F400731360BB
:1053C000FB79022B02D0FB79032B11D10E4B1B680A
:1053D0000D4A43F4805313600B4B1B680A4A23F4B5
:1053E00080531360084B1B68074A43F480631360C3
:1053F000044B00221A7700BF0C37BD465DF8047BD2
:10540000704700BF200000200020024080B487B019
:1054100000AF7860396000237B615AE13B681A680D
:1054200001217B6901FA03F31340FB60FB68002B49
:1054300000F04C813B685B6803F00303012B05D04F
:105440003B685B6803F00303022B30D17B689B68E9
:105450003B617B695B00032202FA03F3DB433A6999
:1054600013403B613B68DA687B695B0002FA03F337
:105470003A6913433B617B683A699A607B685B6871
:105480003B6101227B6902FA03F3DB433A69134073
:105490003B613B685B681B0903F001027B6902FA10
:1054A00003F33A6913433B617B683A695A603B688E
:1054B0005B6803F00303032B17D07B68DB683B6159
:1054C0007B695B00032202FA03F3DB433A69134072
:1054D0003B613B689A687B695B0002FA03F33A69B7
:1054E00013433B617B683A69DA603B685B6803F0B1
:1054F0000303022B23D17B69DA087B68083253F857
:1055000022303B617B6903F007039B000F2202FA04
:1055100003F3DB433A6913403B613B681A697B69DB
:1055200003F007039B0002FA03F33A6913433B615C
:105530007B69DA087B680832396943F822107B6896
:105540001B683B617B695B00032202FA03F3DB43C8
:105550003A6913403B613B685B6803F003027B6977
:105560005B0002FA03F33A6913433B617B683A69D3
:105570001A603B685B6803F44033002B00F0A680A0
:105580005B4B1B6E5A4A43F001031366584B1B6E6C
:1055900003F00103BB60BB68564A7B699B0802337A
:1055A00052F823303B617B6903F003039B000F2219
:1055B00002FA03F3DB433A6913403B617B68B3F1C2
:1055C000904F1FD07B684C4A934219D07B684B4A5E
:1055D000934213D07B684A4A93420DD07B68494A74
:1055E000934207D07B68484A934201D105230AE0E1
:1055F000062308E0042306E0032304E0022302E07C
:10560000012300E000237A6902F003029200934034
:105610003A6913433B6137497B699B0802333A6916
:1056200041F82320394B9B683B61FB68DB433A69B7
:1056300013403B613B685B6803F48013002B03D08D
:105640003A69FB6813433B61304A3B6993602F4BD7
:10565000DB683B61FB68DB433A6913403B613B68B5
:105660005B6803F40013002B03D03A69FB68134313
:105670003B61264A3B69D360244B5B683B61FB6816
:10568000DB433A6913403B613B685B6803F40033DA
:10569000002B03D03A69FB6813433B611B4A3B690B
:1056A00053601A4B1B683B61FB68DB433A6913404C
:1056B0003B613B685B6803F48033002B03D03A699D
:1056C000FB6813433B61114A3B6913607B690133FB
:1056D0007B613B681A687B6922FA03F3002B7FF435
:1056E0009DAE00BF00BF1C37BD465DF8047B704710
:1056F000001002400000014000040048000800487B
:10570000000C00480010004800140048000401404C
:1057100080B483B000AF78600B467B8013467B700B
:105720007B78002B03D07A887B689A6102E07A88C4
:105730007B689A6200BF0C37BD465DF8047B7047FA
:1057400080B485B000AF78600B467B807B685B6976
:10575000FB607A88FB6813401A04FB68D9437B8896
:105760000B401A437B689A6100BF1437BD465DF851
:10577000047B704780B582B000AF78607B68002BF7
:1057800001D101238DE07B6893F84130DBB2002B1F
:1057900006D17B68002283F840207868FDF76CFD15
:1057A0007B68242283F841207B681B681A687B6829
:1057B0001B6822F001021A607B685A687B681B68CC
:1057C00022F070621A617B681B689A687B681B68AC
:1057D00022F400429A607B68DB68012B07D17B686A
:1057E0009A687B681B6842F400429A6006E07B6816
:1057F0009A687B681B6842F404429A607B68DB68A5
:10580000022B08D17B681B685A687B681B6842F4CE
:1058100000625A6007E07B681B685A687B681B68F7
:1058200022F400625A607B681B685B687A681268C1
:1058300043F0007343F4004353607B681B68DA68ED
:105840007B681B6822F40042DA607B681A697B6817
:105850005B6942EA03017B689B691A027B681B68EB
:105860000A43DA607B68D9697B681A6A7B681B68BF
:105870000A431A607B681B681A687B681B6842F0E1
:1058800001021A607B6800225A647B68202283F838
:1058900041207B6800221A637B68002283F8422043
:1058A000002318460837BD4680BD000080B588B08B
:1058B00002AFF860084611461A4603467B810B4644
:1058C0003B811346FB80FB6893F84130DBB2202B11
:1058D00040F0F9803B6A002B02D0BB8C002B05D135
:1058E000FB684FF400725A640123EDE0FB6893F803
:1058F0004030012B01D10223E6E0FB68012283F84E
:105900004020FEF7C9FE78617B69009319230122CC
:105910004FF40041F86800F0C3FA0346002B01D0B1
:105920000123D1E0FB68212283F84120FB6840225B
:1059300083F84220FB6800225A64FB683A6A5A6284
:10594000FB68BA8C5A85FB6800225A63F8883A894A
:1059500079897B690193BB6A00930346F86800F07C
:10596000D3F90346002B05D0FB68002283F84020C2
:105970000123A9E0FB685B8D9BB2FF2B0ED9FB686E
:10598000FF221A85FB681B8DDAB279890023009308
:105990004FF08073F86800F047FC0FE0FB685B8D08
:1059A0009AB2FB681A85FB681B8DDAB279890023ED
:1059B00000934FF00073F86800F036FC7A69B96A1A
:1059C000F86800F0C6FA0346002B01D001237BE003
:1059D000FB685B6A1A78FB681B689A62FB685B6A03
:1059E0005A1CFB685A62FB685B8D9BB2013B9AB202
:1059F000FB685A85FB681B8D013B9AB2FB681A85D0
:105A0000FB685B8D9BB2002B34D0FB681B8D002B99
:105A100030D17B690093BB6A00228021F86800F0D6
:105A20003FFA0346002B01D001234DE0FB685B8D5C
:105A30009BB2FF2B0ED9FB68FF221A85FB681B8DDA
:105A4000DAB27989002300934FF08073F86800F090
:105A5000EBFB0FE0FB685B8D9AB2FB681A85FB6875
:105A60001B8DDAB27989002300934FF00073F86838
:105A700000F0DAFBFB685B8D9BB2002B9ED17A694C
:105A8000B96AF86800F0ACFA0346002B01D0012394
:105A90001AE0FB681B682022DA61FB681B68596802
:105AA000FB681A680A4B0B405360FB68202283F89E
:105AB0004120FB68002283F84220FB68002283F823
:105AC0004020002300E0022318461837BD4680BD61
:105AD00000E800FE80B588B002AFF86008461146C5
